:100000000C9476050C949E050C949E050C949E050C
:100010000C949E050C949E050C949E050C949E05D4
:100020000C949E050C949E050C949E050C94A005C2
:100030000C949E050C949E050C949E050C949E05B4
:100040000C94150B0C949E050C94C50B0C949E05FA
:100050000C949E050C949E050C949E050C949E0594
:100060000C949E050C949E0507634236B79BD8A757
:100070001A39685618AEBAAB558C1D3CB7CC5763CD
:10008000BD6DEDFD753EF6177231BF000000803F7B
:10009000000306090C0F1215181B1E2124272A2DF8
:1000A000303336393B3E414346494B4E505255570B
:1000B000595B5E6062646667696B6C6E70717274C6
:1000C00075767778797A7B7B7C7D7D7E7E7E7E7E81
:1000D0007F7E7E7E7E7E7D7D7C7B7B7A7978777667
:1000E00075747271706E6C6B6967666462605E5B7A
:1000F00059575552504E4B494643413E3B39363392
:10010000302D2A2724211E1B1815120F0C09060357
:1001100000FDFAF7F4F1EEEBE8E5E2DFDCD9D6D347
:10012000D0CDCAC7C5C2BFBDBAB7B5B2B0AEABA914
:10013000A7A5A2A09E9C9A9997959492908F8E8C39
:100140008B8A89888786858584838382828282825E
:100150008182828282828383848585868788898A58
:100160008B8C8E8F9092949597999A9C9EA0A2A525
:10017000A7A9ABAEB0B2B5B7BABDBFC2C5C7CACDED
:10018000D0D3D6D9DCDFE2E5E8EBEEF1F4F7FAFC08
:100190008182838485868788898A8B8C8D8E8F90D7
:1001A0009192939495969798999A9B9C9D9E9FA0C7
:1001B000A1A2A3A4A5A6A7A8A9AAABACADAEAFB0B7
:1001C000B1B2B3B4B5B6B7B8B9BABBBCBDBEBFC0A7
:1001D000C1C2C3C4C5C6C7C8C9CACBCCCDCECFD097
:1001E000D1D2D3D4D5D6D7D8D9DADBDCDDDEDFE087
:1001F000E1E2E3E4E5E6E7E8E9EAEBECEDEEEFF077
:10020000F1F2F3F4F5F6F7F8F9FAFBFCFDFEFF0066
:10021000000102030405060708090A0B0C0D0E0F66
:10022000101112131415161718191A1B1C1D1E1F56
:10023000202122232425262728292A2B2C2D2E2F46
:10024000303132333435363738393A3B3C3D3E3F36
:10025000404142434445464748494A4B4C4D4E4F26
:10026000505152535455565758595A5B5C5D5E5F16
:10027000606162636465666768696A6B6C6D6E6F06
:10028000707172737475767778797A7B7C7D7E7FF6
:10029000807F7E7D7C7B7A797877767574737271D6
:1002A000706F6E6D6C6B6A696867666564636261C6
:1002B000605F5E5D5C5B5A595857565554535251B6
:1002C000504F4E4D4C4B4A494847464544434241A6
:1002D000403F3E3D3C3B3A39383736353433323196
:1002E000302F2E2D2C2B2A29282726252423222186
:1002F000201F1E1D1C1B1A19181716151413121176
:10030000100F0E0D0C0B0A09080706050403020165
:100310000000FFFEFDFCFBFAF9F8F7F6F5F4F3F246
:10032000F1F0EFEEEDECEBEAE9E8E7E6E5E4E3E235
:10033000E1E0DFDEDDDCDBDAD9D8D7D6D5D4D3D225
:10034000D1D0CFCECDCCCBCAC9C8C7C6C5C4C3C215
:10035000C1C0BFBEBDBCBBBAB9B8B7B6B5B4B3B205
:10036000B1B0AFAEADACABAAA9A8A7A6A5A4A3A2F5
:10037000A1A09F9E9D9C9B9A9998979695949392E5
:1003800091908F8E8D8C8B8A8988878685848381D6
:100390007F7F7F7F7F7F7F7F7F7F7F7F7F7F7F7F6D
:1003A0007F7F7F7F7F7F7F7F7F7F7F7F7F7F7F7F5D
:1003B0007F7F7F7F7F7F7F7F7F7F7F7F7F7F7F7F4D
:1003C0007F7F7F7F7F7F7F7F7F7F7F7F7F7F7F7F3D
:1003D0007F7F7F7F7F7F7F7F7F7F7F7F7F7F7F7F2D
:1003E0007F7F7F7F7F7F7F7F7F7F7F7F7F7F7F7F1D
:1003F0007F7F7F7F7F7F7F7F7F7F7F7F7F7F7F7F0D
:100400007F7F7F7F7F7F7F7F7F7F7F7F7F7F7F7FFC
:1004100083838383838383838383838383838383AC
:10042000838383838383838383838383838383839C
:10043000838383838383838383838383838383838C
:10044000838383838383838383838383838383837C
:10045000838383838383838383838383838383836C
:10046000838383838383838383838383838383835C
:10047000838383838383838383838383838383834C
:10048000838383838383838383838383838383FFC0
:10049000C2B8A49E629960A7E3C962F88A0D0BFFF7
:1004A0004CF88C3321ABD5F08ED1C18F6DD981C57D
:1004B0000076463E3655337A3C1E82E747AEF5401D
:1004C000A1927F25F2C733FCD1B06E078B5941C68C
:1004D00032EB218FEA6FD26C70C79135EBEA81EE77
:1004E000F75F5863EFFD4A027BE135F95BB00F908F
:1004F000720E8DC9165F153597BDE7190D3A87C283
:1005000067576D26B1C4F0BCA55A709D7657C3DC01
:10051000D8D9E222539CD58ECAF8DCCC4716DF74BA
:10052000097218A5D096FEE16715752C73C5356163
:100530007C4278D439A0E82E206FC8852EF561BAA8
:10054000F4A7AF18E3E94D2AD8089EDDEB743DD738
:100550007442A8165FE128CDB21C037C5C51E54EC5
:1005600041F08CB78237B44E112B42E875DAB4F6FD
:10057000DBD1C8215ED86B2498F5E5E969A044E792
:10058000074306BB46F60A052A78B986AA71707732
:100590000001030507090B0D0F11131517191B1D7A
:1005A0001F21232527292B2D2F31333537393B3D6B
:1005B0003F41434547494B4D4F51535557595B5D5B
:1005C0005F61636567696B6D6F71737577797B7D4B
:1005D0007F7D7B79777573716F6D6B69676563611B
:1005E0005F5D5B59575553514F4D4B49474543410B
:1005F0003F3D3B39373533312F2D2B2927252321FB
:100600001F1D1B19171513110F0D0B0907050301EA
:1006100000FFFDFBF9F7F5F3F1EFEDEBE9E7E5E3BB
:10062000E1DFDDDBD9D7D5D3D1CFCDCBC9C7C5C3AA
:10063000C1BFBDBBB9B7B5B3B1AFADABA9A7A5A39A
:10064000A19F9D9B99979593918F8D8B898785838A
:1006500081838587898B8D8F91939597999B9D9F9A
:10066000A1A3A5A7A9ABADAFB1B3B5B7B9BBBDBF8A
:10067000C1C3C5C7C9CBCDCFD1D3D5D7D9DBDDDF7A
:10068000E1E3E5E7E9EBEDEFF1F3F5F7F9FBFDFE6B
:10069000FFFEFEFEFEFEFEFDFDFDFDFDFDFCFCFC85
:1006A000FCFCFBFBFBFAFAFAF9F9F8F8F8F7F7F7B4
:1006B000F6F6F5F3F1EFEDEAE8E6E4E2DFDDDBD9AB
:1006C000D7D4D2D0CDCBC8C5C3C0BDBBB8B5B3B0ED
:1006D000ADABA8A6A3A09D9A9794918E8B88858296
:1006E0007F7C797673716E6C69676562605E5B5959
:1006F0005654524F4D4B48464543413F3E3C3A3895
:10070000363533312F2E2C2A292726252422212045
:100710001F1D1C1B1A181716141413131211111075
:100720000F0F0E0E0D0C0C0B0A0A09090909090816
:100730000808080707070706060606060606060550
:100740000505050505050505050505050505050559
:10075000050404040404040404040404040303035B
:10076000030303020202020202020101010101016C
:100770000101010000000000000000000000000076
:100780000000000000000000000000000000000069
:10079000FFF8F2EBE5DFD8D2CCC5BFB9B2ACA59F6C
:1007A00099928E8A86817D7975706C68645F5B57DB
:1007B000534F4A494746444341403E3D3B3A383710
:1007C00035343231302F2E2D2C2B2A29282726255F
:1007D00024232221201F1F1E1E1E1D1D1C1C1C1B2E
:1007E0001B1A1A1A19191918181818171717171782
:1007F00016161616151515151414141413131313B1
:10080000131212121211111111101010100F0F0FDC
:100810000F0F0E0E0E0E0D0D0D0D0C0C0C0C0B0B08
:100820000B0B0A0A0A0A0A09090909080808080834
:100830000807070707070606060606060606060552
:100840000505050505050505050505050505050558
:10085000050404040404040404040404040303035A
:10086000030303020202020202020101010101016B
:100870000101010000000000000000000000000075
:100880000000000000000000000000000000000068
:10089000FFFEFEFEFEFEFEFDFDFDFDFDFDFCFCFC83
:1008A000FCFCFCFCFBFBFBFBFBFBFAFAFAFAFAFA9A
:1008B000F9F9F9F8F7F6F4F3F2F1F0EFEDECEBEA11
:1008C000E9E7E6E5DBD2C8BEB4AAA0978D83796FCD
:1008D000665C52483E3C3A383533312F2D2A282663
:1008E00024221F1D1B191918181818171717171766
:1008F00016161616151515151414141413131313B0
:10090000131212121211111111101010100F0F0FDB
:100910000F0F0E0E0E0E0D0D0D0D0C0C0C0C0B0B07
:100920000B0B0A0A0A0A0A09090909080808080833
:100930000807070707070606060606060606060551
:100940000505050505050505050505050505050557
:100950000504040404040404040404040403030359
:10096000030303020202020202020101010101016A
:100970000101010000000000000000000000000074
:100980000000000000000000000000000000000067
:10099000FFFCFAF8F6F4F2F0EEEBE9E7E5E3E1DF6D
:1009A000DDDAD9D7D5D3D1D0CECCCAC8C7C5C3C15B
:1009B000BFBEBCBAB7B5B3B1AFACAAA8A6A4A19F3D
:1009C0009D9B99969492908D8B89868482807D7B65
:1009D00079767472706E6D6B696866656362605E6D
:1009E0005D5B5A5857555352504F4D4C4A484745F6
:1009F0004442413F3D3C3A39383736343332313066
:100A00002E2D2C2B2A292726252322201F1D1C1A98
:100A1000191716141311100E0D0D0C0C0C0C0B0BDA
:100A20000B0B0A0A0A0A0A09090909080808080832
:100A30000807070707070606060606060606060550
:100A40000505050505050505050505050505050556
:100A50000504040404040404040404040403030358
:100A60000303030202020202020201010101010169
:100A70000101010000000000000000000000000073
:100A80000000000000000000000000000000000066
:100A900000000000240027002A00000000002500BC
:100AA00028002B0000000000230026002900040479
:100AB0000404040404040202020202020303030306
:100AC00003030102040810204080010204081020E2
:100AD00001020408102000000007000201000003CA
:100AE000040600000000000000000E0D11241FBECF
:100AF000CFEFD4E0DEBFCDBF11E0A0E0B1E0E0E693
:100B0000F3E202C005900D92A833B107D9F712E0C5
:100B1000A8E3B1E001C01D92A930B107E1F71AE0E6
:100B2000CCEEDAE004C02297FE010E94AA11CA3E70
:100B3000D107C9F70E940E0B0C94AE110C94000063
:100B40001F920F920FB60F9211240F931F932F93A2
:100B50003F934F935F936F937F938F939F93AF9345
:100B6000BF93EF93FF938091880090918900865006
:100B70009F4F909389008093880080912C01882357
:100B800031F080912C01815080932C01BBC084E016
:100B900080932C0180911C0190911D0197FD26C02E
:100BA000409148015091490120911C0130911D0153
:100BB0008091240190912501820F931F90931D0134
:100BC00080931C01E0911C01F0911D01EE0FEF2FAD
:100BD000EE1FFF0BF195E40FF51FE491E093080180
:100BE00080911C0190911D0197FF02C01092080195
:100BF00080911E0190911F0197FD26C040914A01EE
:100C000050914B0120911E0130911F0180912601CE
:100C100090912701820F931F90931F0180931E01D3
:100C2000E0911E01F0911F01EE0FEF2FEE1FFF0B61
:100C3000F195E40FF51FE491E093090180911E0105
:100C400090911F0197FF02C010920901809120012D
:100C50009091210197FD26C040914C0150914D018A
:100C6000209120013091210180912801909129014A
:100C7000820F931F9093210180932001E091200126
:100C8000F0912101EE0FEF2FEE1FFF0BF195E40F16
:100C9000F51FE491E0930A018091200190912101D8
:100CA00097FF02C010920A018091220190912301C6
:100CB00097FD26C040914E0150914F012091220195
:100CC0003091230180912A0190912B01820F931F73
:100CD0009093230180932201E0912201F09123015E
:100CE000EE0FEF2FEE1FFF0BF195E40FF51FE491D0
:100CF000E0930B01809122019091230197FF02C0A4
:100D000010920B0140914001509141012091380116
:100D1000309139018091000190910101820F931F60
:100D20009093390180933801809138019091390175
:100D3000E92FFF27E40FF51F14910091080140915E
:100D400042015091430120913A0130913B01809141
:100D5000020190910301820F931F90933B018093B6
:100D60003A0180913A0190913B01E92FFF27E40F6E
:100D7000F51FB491A09109014091440150914501A2
:100D800020913C0130913D01809104019091050139
:100D9000820F931F90933D0180933C0180913C0111
:100DA00090913D01E92FFF27E40FF51F74916091A9
:100DB0000A01409146015091470120913E01309136
:100DC0003F018091060190910701820F931F90933C
:100DD0003F0180933E01E0913E01F0913F01EF2FF2
:100DE000FF27E40FF51FE49140910B018B2F99270A
:100DF00087FD9095B0E08A9F90018B9F300D9A9F60
:100E0000300D1124232F330F330B812F992787FDAA
:100E1000909510E0DC01A09FC001A19F900DB09FB4
:100E2000900D1124892F990F990B280F391F872FA7
:100E3000992787FD909570E0DC01A69FC001A79FD0
:100E4000900DB69F900D1124892F990F990B280FA3
:100E5000391F8E2F992787FD909550E0BC01649F24
:100E6000C001659F900D749F900D1124892F990FDB
:100E7000990B280F391F35952795359527952158BA
:100E800027BD80915001909151010196909351019D
:100E900080935001FF91EF91BF91AF919F918F91FE
:100EA0007F916F915F914F913F912F911F910F9182
:100EB0000F900FBE0F901F9018956F927F928F9298
:100EC0009F92AF92BF92CF92DF92EF92FF920F93D9
:100ED0001F9339014A01A7019601E82EFF24EE0C69
:100EE000FF1CF701E05CFE4F71836083F701E85B54
:100EF000FE4F1183008360E070E080E89FE30E9472
:100F0000CA0E28EC30E048E45DE30E94CA0E0E945D
:100F1000630FF701EC5DFE4F71836083C401B30181
:100F20002AEF30E04AE75EE30E94CA0E0E94630F98
:100F3000F701E45FFE4F7183608324E131E0E20E4C
:100F4000F31EF701B182A0821F910F91FF90EF90E5
:100F5000DF90CF90BF90AF909F908F907F906F90D9
:100F60000895DF92EF92FF920F931F9310925C010E
:100F700010925D0110925E0110925F010E945D0B64
:100F80006C597F4F8F4F9F4F609364017093650141
:100F90008093660190936701DD24D39450C08091C3
:100FA000600190916101A0916201B091630101968D
:100FB000A11DB11D8093600190936101A093620116
:100FC000B0936301E0915801F09159012081809123
:100FD0005201482F50E08091680190E030E02423D6
:100FE00035238217930759F580915C0190915D013B
:100FF000A0915E01B0915F010196A11DB11D80938A
:101000005C0190935D01A0935E01B0935F018081CC
:1010100090E084239523E0915601F09157012091AF
:101020005401892B31F48081822B8083D092680116
:1010300006C0808120952823208310926801E090CB
:101040006401F090650100916601109167010E94B2
:101050005D0B6E157F058007910708F4A0CF809186
:101060005C0190915D011F910F91FF90EF90DF90D7
:10107000089588E060E00E94A50B89E061E00E948D
:10108000A50B4AEC5AE0FA0184918093520166EB79
:101090007AE0FB012491209353014E5F5F4FFA01E8
:1010A0008491809354016E5F7F4FFB014491409384
:1010B0005501E42FF0E0EE0FFF1F4AE95AE0E40F7C
:1010C000F51F85919491909357018093560130E0DC
:1010D000220F331FFA01E20FF31F85919491909331
:1010E0005B0180935A01F901EC55F54F859194917C
:1010F000909359018093580108950F931F93262FC1
:10110000082F10E030E0442737FD4095542FCA01E6
:10111000B9010E94910F20E030E04AE852E40E94B9
:10112000650E20E238E94CE65DE30E94B2100E94B1
:10113000370F20E030E04CED53E40E94B2102AEF6C
:1011400030E04AE75EE30E94CA0E0E94630F000F80
:10115000111FF801E45FFE4F71836083045E1E4F30
:10116000F801118210821F910F9108952F923F92E2
:101170004F925F926F927F928F929F92AF92BF92A7
:10118000CF92DF92EF92FF920F931F93CF93DF9353
:1011900082E08093810080916F00826080936F0075
:1011A0007894569A83E884BD81E085BD8FE787BD3A
:1011B00080E060E970E020E030E048E453E400E9DA
:1011C00017E00F2EF0E0CF2EF0E0DF2EF0E8EF2E4C
:1011D000FFE3FF2EF02DBCE2AB2EB1E0BB2E0E9450
:1011E0005D0781E060E971E020E030E048EC52E426
:1011F000A12CA2E0BA2E0E945D0782E060E975E0B2
:1012000020E030E048EC52E400E918E00F2EF0E076
:10121000CF2EF0E0DF2EF0E0EF2EFFE3FF2EF02DDB
:10122000F8EEAF2EF3E0BF2E0E945D0783E060E989
:1012300074E020E030E046E954E400E919E00F2EC4
:10124000FAE0CF2EF7EDDF2EF3EAEF2EFCE3FF2ED0
:10125000F02DE4EFAE2EE1E0BE2E0E945D0786EF9A
:1012600091E040E855E260E070E00E94020CC0E0CE
:10127000D0E08091500190915101895E934008F433
:101280008CC00E94B107BC0186EF91E00E94550E10
:10129000CE0125E0969587952A95E1F7883091054E
:1012A00029F18930910520F4049709F06AC007C03C
:1012B0008C309105A9F1409709F063C048C083E0E4
:1012C00060E975E020E030E84BEB54E400E919E018
:1012D0000F2EFFE8CF2EF2ECDF2EF5EFEF2EFCE322
:1012E000FF2EF02D94E6A92EB12C17C083E060E903
:1012F00074E020E030E84BEB54E400E919E00F2EF5
:10130000FFE8CF2EF2ECDF2EF5EFEF2EFCE3FF2E01
:10131000F02DBCE2AB2EB1E0BB2E0E945D0731C0C8
:1013200081E060E975E020E030E048EC52E400E95B
:1013300017E00F2EF0E0CF2EF0E0DF2EF0E0EF2EE2
:10134000F0E4FF2EF02DA12CA2E0BA2EE6CF81E032
:1013500060E971E020E030E048EC52E400E917E099
:101360000F2EF0E0CF2EF0E0DF2EF0E8EF2EFFE3BF
:10137000FF2EF02DA12CF2E0BF2E0E945D07C0E0F1
:10138000D0E00E94B107682F80E00E947D08109293
:101390005101109250012196D37060910C0170910F
:1013A0000D01E0900C01F0900D01A0901C01B09097
:1013B0001D01609014017090150180E090E00E9482
:1013C0008F0F1B012C0100E010E0C801B7010E9443
:1013D0008F0F7B018C01CC24DD24C601B5010E9456
:1013E0008F0F20E03FEF4FE75AE40E94CA0E9B01A7
:1013F000AC01C801B7010E94B2107B018C0180E0F2
:101400009EEF680E791E882477FC8094982CC40186
:10141000B3010E94910F9B01AC01C801B7010E946A
:10142000B2109B01AC01C201B1010E94660E0E9484
:10143000630F709301016093000160910E01709140
:101440000F01E0900E01F0900F01A0901E01B090EE
:101450001F01609016017090170180E090E00E94DB
:101460008F0F1B012C0100E010E0C801B7010E94A2
:101470008F0F7B018C01CC24DD24C601B5010E94B5
:101480008F0F20E03FEF4FE75AE40E94CA0E9B0106
:10149000AC01C801B7010E94B2107B018C0180E051
:1014A0009EEF680E791E882477FC8094982CC401E6
:1014B000B3010E94910F9B01AC01C801B7010E94CA
:1014C000B2109B01AC01C201B1010E94660E0E94E4
:1014D000630F70930301609302016091100170919A
:1014E0001101E0901001F0901101A0902001B09046
:1014F0002101609018017090190180E090E00E9435
:101500008F0F1B012C0100E010E0C801B7010E9401
:101510008F0F7B018C01CC24DD24C601B5010E9414
:101520008F0F20E03FEF4FE75AE40E94CA0E9B0165
:10153000AC01C801B7010E94B2107B018C0180E0B0
:101540009EEF680E791E882477FC8094982CC40145
:10155000B3010E94910F9B01AC01C801B7010E9429
:10156000B2109B01AC01C201B1010E94660E0E9443
:10157000630F7093050160930401609112017091F3
:101580001301E0901201F0901301A0902201B0909D
:10159000230160901A0170901B0180E090E00E948E
:1015A0008F0F1B012C0100E010E0C801B7010E9461
:1015B0008F0F7B018C01CC24DD24C601B5010E9474
:1015C0008F0F20E03FEF4FE75AE40E94CA0E9B01C5
:1015D000AC01C801B7010E94B2107B018C0180E010
:1015E0009EEF680E791E882477FC8094982CC401A5
:1015F000B3010E94910F9B01AC01C801B7010E9489
:10160000B2109B01AC01C201B1010E94660E0E94A2
:10161000630F70930701609306012BCE0E946B0B42
:101620000E9439080E94B608FDCF1F920F920FB694
:101630000F9211242F933F938F939F93AF93BF9358
:1016400080916D0190916E01A0916F01B091700138
:10165000309171010196A11DB11D232F2D5F2D37F2
:1016600020F02D570196A11DB11D2093710180938B
:101670006D0190936E01A0936F01B0937001809102
:10168000690190916A01A0916B01B0916C01019682
:10169000A11DB11D8093690190936A01A0936B0114
:1016A000B0936C01BF91AF919F918F913F912F911A
:1016B0000F900FBE0F901F9018958FB7F894209140
:1016C0006D0130916E0140916F01509170018FBF9B
:1016D000B901CA010895789484B5826084BD84B547
:1016E000816084BD85B5826085BD85B5816085BD1D
:1016F000EEE6F0E0808181608083E1E8F0E08081C7
:1017000082608083808181608083E0E8F0E0808176
:1017100081608083E1EBF0E0808184608083E0EB96
:10172000F0E0808181608083EAE7F0E0808184607E
:1017300080838081826080838081816080838081DA
:10174000806880831092C1000895282F30E0C9017D
:101750008E53954FFC0194912255354FF901849198
:10176000882391F0E82FF0E0EE0FFF1FE057F54FD0
:10177000A591B491662329F48C91909589238C933B
:1017800008958C91892B8C9308951F920F920FB618
:101790000F9211242F933F934F935F936F937F93F7
:1017A0008F939F93AF93BF93EF93FF934091C600A6
:1017B000E091F201F091F301CF01019660E870E051
:1017C0000E9444119C018091F4019091F501281729
:1017D000390739F0EE58FE4F40833093F3012093E0
:1017E000F201FF91EF91BF91AF919F918F917F9106
:1017F0006F915F914F913F912F910F900FBE0F907E
:101800001F9018955F926F927F928F929F92AF92E6
:10181000BF92CF92DF92EF92FF920F931F93CF93DD
:10182000DF93EC013A014B01413482E458078FE029
:10183000680780E078070CF07FC060E874E88EE10C
:1018400090E0A40193010E94791121503040404062
:101850005040CA01B90122E030E040E050E00E946F
:10186000791159016A01A60195012095309540959D
:10187000509594E0220F331F441F551F9A95D1F7BE
:1018800060E074E284EF90E00E947911CA01B9012E
:101890002FEF30E040E050E00E942511A4019301B9
:1018A0000E947911C90181509F4F181619061CF426
:1018B000522E5A9403C055245394521A60E079E092
:1018C0008DE390E0A40193010E94791121503040F2
:1018D00040405040CA01B90122E030E040E050E011
:1018E0000E947911209530954095509583E0220F04
:1018F000331F441F551F8A95D1F760E074E284EFCF
:1019000090E00E947911CA01B9012FEF30E040E068
:1019100050E00E942511A40193010E947911C90190
:1019200081509F4F181619061CF4822F815002C057
:1019300081E0821B851500F5E885F98581E090E05E
:101940000A8802C0880F991F0A94E2F7808360E03A
:1019500079E08DE390E0A40193010E947911215078
:10196000304040405040CA01B90122E030E040E040
:1019700050E00E94791104C0E885F9851082950134
:10198000EC81FD813083EE81FF812083EA85FB8538
:10199000208141E050E0CA010E8402C0880F991FE7
:1019A0000A94E2F7282B2083EA85FB852081CA016F
:1019B0000F8402C0880F991F0A94E2F7282B208316
:1019C000EA85FB858081088802C0440F551F0A9470
:1019D000E2F7842B8083DF91CF911F910F91FF90CD
:1019E000EF90DF90CF90BF90AF909F908F907F90BF
:1019F0006F905F900895FC01A085B18521898C913D
:101A000090E0022E02C0959587950A94E2F780FF38
:101A1000F6CF0484F585E02D6083089581E391E09D
:101A20009093F7018093F60182E791E09093F9019A
:101A30008093F80185EC90E09093FB018093FA018C
:101A400084EC90E09093FD018093FC0180EC90E0A9
:101A50009093FF018093FE0181EC90E0909301024E
:101A60008093000286EC90E0909303028093020240
:101A700084E08093040283E08093050287E08093F2
:101A8000060285E08093070281E0809308020895B2
:101A90000F931F93CF93DF938C01EB0109C0219625
:101AA000D801ED91FC910190F081E02DC8010995DC
:101AB00068816623A1F7DF91CF911F910F9108955F
:101AC000EF92FF920F931F93CF93DF938C017B01D3
:101AD000EA010CC0D7016D917D01D801ED91FC9117
:101AE0000190F081E02DC80109952197209791F789
:101AF000DF91CF911F910F91FF90EF9008950F9379
:101B00001F938C01DC01ED91FC910190F081E02D9F
:101B10006DE00995D801ED91FC910190F081E02DE7
:101B2000C8016AE009951F910F9108952F923F9285
:101B30004F925F926F927F928F929F92AF92BF92DD
:101B4000CF92DF92EF92FF920F931F93DF93CF9389
:101B5000CDB7DEB7A0970FB6F894DEBF0FBECDBFEE
:101B60001C016A017B01411551056105710549F4AC
:101B7000DC01ED91FC910190F081E02D60E309958D
:101B800054C0882499245401422E55246624772475
:101B900001E010E00C0F1D1F080D191DC701B60153
:101BA000A30192010E945711F80160830894811CDF
:101BB000911CA11CB11CC701B601A30192010E9496
:101BC0005711C901DA016C017D01C114D104E1048E
:101BD000F104F1F681E0E82EF12CEC0EFD1EE80C8C
:101BE000F91C3E010894611C711CD501C4010197C8
:101BF000A109B1096C01C818D90814C0F601EE0D8D
:101C0000FF1D60816A3010F4605D01C0695CD10124
:101C1000ED91FC910190F081E02DC10109950894AE
:101C2000E108F1086E147F0449F7A0960FB6F89406
:101C3000DEBF0FBECDBFCF91DF911F910F91FF90FF
:101C4000EF90DF90CF90BF90AF909F908F907F905C
:101C50006F905F904F903F902F900895EF92FF927A
:101C60000F931F93CF93DF93EC017A018B0177FFE2
:101C70000FC0E881F9810190F081E02D6DE20995B6
:101C800010950095F094E094E11CF11C011D111DCC
:101C9000CE01B801A7012AE00E94960DDF91CF91F5
:101CA0001F910F91FF90EF9008950F931F938C0158
:101CB000AB01662757FD6095762F0E942E0EC80156
:101CC0000E947F0D1F910F9108955058BB27AA279E
:101CD0000ED09EC18FD130F094D120F031F49F3FCF
:101CE00011F41EF45FC10EF4E095E7FB55C1E92F36
:101CF000A0D180F3BA17620773078407950718F01D
:101D000071F49EF5B8C10EF4E0950B2EBA2FA02DFC
:101D10000B01B90190010C01CA01A0011124FF2798
:101D2000591B99F0593F50F4503E68F11A16F04093
:101D3000A22F232F342F4427585FF3CF4695379592
:101D40002795A795F0405395C9F77EF41F16BA0B57
:101D5000620B730B840BBAF09150A1F0FF0FBB1F05
:101D6000661F771F881FC2F70EC0BA0F621F731F4E
:101D7000841F48F4879577956795B795F7959E3FAB
:101D800008F0B3CF9395880F08F09927EE0F979539
:101D9000879508950CD03CC134D140F02BD130F060
:101DA00021F45F3F19F0F8C0511166C1FBC041D169
:101DB00098F39923C9F35523B1F3951B550BBB2712
:101DC000AA2762177307840738F09F5F5F4F220FBF
:101DD000331F441FAA1FA9F333D00E2E3AF0E0E8B8
:101DE00030D091505040E695001CCAF729D0FE2F04
:101DF00027D0660F771F881FBB1F26173707480796
:101E0000AB07B0E809F0BB0B802DBF01FF2793584B
:101E10005F4F2AF09E3F510568F0BEC02DC15F3F65
:101E2000ECF3983EDCF3869577956795B795F79533
:101E30009F5FC9F7880F911D9695879597F908952B
:101E4000E1E0660F771F881FBB1F621773078407C7
:101E5000BA0720F0621B730B840BBA0BEE1F88F7D6
:101E6000E095089519F40EF097C005C19BC0E9D024
:101E7000C8F39638C0F707F80F92E8942BE33AEAD4
:101E800048EB5FE77DD10F920F920F924DB75EB78F
:101E90000F9235D1E8E6F0E088D04F915F91EF9155
:101EA000FF91E595EE1FFF1F49F0FE57E0684427BC
:101EB000EE0F441FFA95E1F74195550BECD00F90CA
:101EC00007FEE0C00895BDD088F09F5790F0B92F6D
:101ED0009927B751A0F0D1F0660F771F881F991F7F
:101EE0001AF0BA95C9F712C0B13081F0C4D0B1E090
:101EF0000895C1C0672F782F8827B85F39F0B93FA0
:101F0000CCF3869577956795B395D9F73EF4909580
:101F10008095709561957F4F8F4F9F4F0895E894FE
:101F200009C097FB3EF490958095709561957F4F21
:101F30008F4F9F4F9923A9F0F92F96E9BB279395CF
:101F4000F695879577956795B795F111F8CFFAF4DF
:101F5000BB0F11F460FF1BC06F5F7F4F8F4F9F4F10
:101F600016C0882311F096E911C0772321F09EE86E
:101F7000872F762F05C0662371F096E8862F70E0D4
:101F800060E02AF09A95660F771F881FDAF7880FAE
:101F90009695879597F9089597F99F6780E870E07F
:101FA00060E008959FEF80EC0895DF93CF931F9337
:101FB0000F93FF92EF92DF927B018C01689405C032
:101FC000DA2EEF01DBD0FE01E894A5912591359141
:101FD00045915591AEF3EF018ADEFE019701A8010C
:101FE000DA9479F7DF90EF90FF900F911F91CF91E6
:101FF000DF91089500240A9416161706180609069C
:10200000089500240A94121613061406050608956E
:10201000092E0394000C11F4882352F0BB0F40F4F6
:10202000BF2B11F460FF04C06F5F7F4F8F4F9F4F36
:10203000089557FD9058440F551F59F05F3F71F0B8
:102040004795880F97FB991F61F09F3F79F087951F
:102050000895121613061406551FF2CF4695F1DFA8
:1020600008C0161617061806991FF1CF8695710538
:10207000610508940895E894BB2766277727CB016C
:1020800097F908959B01AC0160E070E080E89FE360
:1020900081CE82CFCAC0D5DFE8F39923D9F3940F5C
:1020A000511DBBF39150504094F059F0882332F009
:1020B000660F771F881F91505040C1F79E3F510512
:1020C00044F7880F911D9695879597F908955F3F7E
:1020D000ACF0983E9CF0BB27869577956795B795B1
:1020E00008F4B1609395C1F7BB0F58F711F460FF86
:1020F000E8CF6F5F7F4F8F4F9F4FE3CFBDCFFA0188
:10210000DC01AA0FBB1F9B01AC01BF5728F422279B
:102110003327442750781FC0B75188F4AB2F0024D1
:10212000469537952795011CA395D2F3002069F0B9
:10213000220F331F441FB395DAF30DD0C6CD6130A3
:102140007105A0E88A07B94630F49B01AC01662707
:10215000772788279078309621F020833183428337
:10216000538308950BD054CF45DF28F04ADF18F091
:10217000952309F011CF16CF11247ECF5ADFA0F39B
:10218000959FD1F3950F50E0551F629FF001729F0C
:10219000BB27F00DB11D639FAA27F00DB11DAA1F2B
:1021A000649F6627B00DA11D661F829F2227B00D78
:1021B000A11D621F739FB00DA11D621F839FA00D03
:1021C000611D221F749F3327A00D611D231F849F53
:1021D000600D211D822F762F6A2F11249F575040AA
:1021E0008AF0E1F088234AF0EE0FFF1FBB1F661F45
:1021F000771F881F91505040A9F79E3F510570F0FE
:10220000CBCE3ACF5F3FECF3983EDCF386957795E3
:102210006795B795F795E7959F5FC1F7FE2B880FF8
:10222000911D9695879597F908959F3F49F0915094
:1022300028F4869577956795B7959F5F80389F4F6F
:10224000880F9695879597F90895629FD001739F9F
:10225000F001829FE00DF11D649FE00DF11D929F42
:10226000F00D839FF00D749FF00D659FF00D992781
:10227000729FB00DE11DF91F639FB00DE11DF91FA5
:10228000BD01CF011124089597FB092E07260AD01E
:1022900077FD04D049D006D000201AF470956195DE
:1022A0007F4F0895F6F7909581959F4F0895A1E28D
:1022B0001A2EAA1BBB1BFD010DC0AA1FBB1FEE1FC0
:1022C000FF1FA217B307E407F50720F0A21BB30B0B
:1022D000E40BF50B661F771F881F991F1A9469F787
:1022E00060957095809590959B01AC01BD01CF01E3
:1022F000089597FB092E05260ED057FD04D0D7DF91
:102300000AD0001C38F450954095309521953F4FE8
:102310004F4F5F4F0895F6F79095809570956195B2
:102320007F4F8F4F9F4F0895AA1BBB1B51E107C0E2
:10233000AA1FBB1FA617B70710F0A61BB70B881F55
:10234000991F5A95A9F780959095BC01CD010895E4
:10235000EE0FFF1F0590F491E02D0994F894FFCF44
:10236000E803C8002C019001FFFFFFFFF401F40116
:10237000F401F4011400000040007F0000800080A0
:10238000008000800A000A000A000A000400000021
:0823900000FB0C480D600D007C
:00000001FF
