:100000000C9485050C94AD050C94AD050C94AD05D0
:100010000C94AD050C94AD050C94AD050C94AF0596
:100020000C94AD050C94AD050C94AD050C94AD0588
:100030000C94AD050C94AD050C94AD050C94AD0578
:100040000C94220C0C94AD050C94960D0C94AD05FB
:100050000C94AD050C94AD050C94AD050C94AD0558
:100060000C94AD050C94AD0507634236B79BD8A739
:100070001A39685618AEBAAB558C1D3CB7CC5763CD
:10008000BD6DEDFD753EF6177231BF000000803F7B
:1000900005A84CCDB2D44EB93836A9020C50B9914E
:1000A0008688083CA6AAAA2ABE000000803F00035A
:1000B00006090C0F1215181B1E2124272A2D303378
:1000C00036393B3E414346494B4E50525557595B9A
:1000D0005E6062646667696B6C6E7071727475766F
:1000E0007778797A7B7B7C7D7D7E7E7E7E7E7F7E4F
:1000F0007E7E7E7E7D7D7C7B7B7A7978777675745B
:100100007271706E6C6B6967666462605E5B595792
:100110005552504E4B494643413E3B393633302DC4
:100120002A2724211E1B1815120F0C09060300FD97
:10013000FAF7F4F1EEEBE8E5E2DFDCD9D6D3D0CD87
:10014000CAC7C5C2BFBDBAB7B5B2B0AEABA9A7A545
:10015000A2A09E9C9A9997959492908F8E8C8B8A50
:100160008988878685858483838282828282818250
:10017000828282828383848585868788898A8B8C24
:100180008E8F9092949597999A9C9EA0A2A5A7A9CC
:10019000ABAEB0B2B5B7BABDBFC2C5C7CACDD0D37A
:1001A000D6D9DCDFE2E5E8EBEEF1F4F7FAFC818288
:1001B000838485868788898A8B8C8D8E8F90919297
:1001C000939495969798999A9B9C9D9E9FA0A1A287
:1001D000A3A4A5A6A7A8A9AAABACADAEAFB0B1B277
:1001E000B3B4B5B6B7B8B9BABBBCBDBEBFC0C1C267
:1001F000C3C4C5C6C7C8C9CACBCCCDCECFD0D1D257
:10020000D3D4D5D6D7D8D9DADBDCDDDEDFE0E1E246
:10021000E3E4E5E6E7E8E9EAEBECEDEEEFF0F1F236
:10022000F3F4F5F6F7F8F9FAFBFCFDFEFF00000128
:1002300002030405060708090A0B0C0D0E0F101126
:1002400012131415161718191A1B1C1D1E1F202116
:1002500022232425262728292A2B2C2D2E2F303106
:1002600032333435363738393A3B3C3D3E3F4041F6
:1002700042434445464748494A4B4C4D4E4F5051E6
:1002800052535455565758595A5B5C5D5E5F6061D6
:1002900062636465666768696A6B6C6D6E6F7071C6
:1002A00072737475767778797A7B7C7D7E7F807FB8
:1002B0007E7D7C7B7A797877767574737271706FD6
:1002C0006E6D6C6B6A696867666564636261605FC6
:1002D0005E5D5C5B5A595857565554535251504FB6
:1002E0004E4D4C4B4A494847464544434241403FA6
:1002F0003E3D3C3B3A393837363534333231302F96
:100300002E2D2C2B2A292827262524232221201F85
:100310001E1D1C1B1A191817161514131211100F75
:100320000E0D0C0B0A090807060504030201000064
:10033000FFFEFDFCFBFAF9F8F7F6F5F4F3F2F1F045
:10034000EFEEEDECEBEAE9E8E7E6E5E4E3E2E1E035
:10035000DFDEDDDCDBDAD9D8D7D6D5D4D3D2D1D025
:10036000CFCECDCCCBCAC9C8C7C6C5C4C3C2C1C015
:10037000BFBEBDBCBBBAB9B8B7B6B5B4B3B2B1B005
:10038000AFAEADACABAAA9A8A7A6A5A4A3A2A1A0F5
:100390009F9E9D9C9B9A99989796959493929190E5
:1003A0008F8E8D8C8B8A89888786858483817F7FD9
:1003B0007F7F7F7F7F7F7F7F7F7F7F7F7F7F7F7F4D
:1003C0007F7F7F7F7F7F7F7F7F7F7F7F7F7F7F7F3D
:1003D0007F7F7F7F7F7F7F7F7F7F7F7F7F7F7F7F2D
:1003E0007F7F7F7F7F7F7F7F7F7F7F7F7F7F7F7F1D
:1003F0007F7F7F7F7F7F7F7F7F7F7F7F7F7F7F7F0D
:100400007F7F7F7F7F7F7F7F7F7F7F7F7F7F7F7FFC
:100410007F7F7F7F7F7F7F7F7F7F7F7F7F7F7F7FEC
:100420007F7F7F7F7F7F7F7F7F7F7F7F7F7F8383D4
:10043000838383838383838383838383838383838C
:10044000838383838383838383838383838383837C
:10045000838383838383838383838383838383836C
:10046000838383838383838383838383838383835C
:10047000838383838383838383838383838383834C
:10048000838383838383838383838383838383833C
:10049000838383838383838383838383838383832C
:1004A00083838383838383838383838383FFC2B82C
:1004B000A49E629960A7E3C962F88A0D0BFF4CF80D
:1004C0008C3321ABD5F08ED1C18F6DD981C500762B
:1004D000463E3655337A3C1E82E747AEF540A19240
:1004E0007F25F2C733FCD1B06E078B5941C632EB82
:1004F000218FEA6FD26C70C79135EBEA81EEF75F1E
:100500005863EFFD4A027BE135F95BB00F90720E44
:100510008DC9165F153597BDE7190D3A87C2675724
:100520006D26B1C4F0BCA55A709D7657C3DCD8D9EE
:10053000E222539CD58ECAF8DCCC4716DF740972D0
:1005400018A5D096FEE16715752C73C535617C4200
:1005500078D439A0E82E206FC8852EF561BAF4A7AB
:10056000AF18E3E94D2AD8089EDDEB743DD77442FD
:10057000A8165FE128CDB21C037C5C51E54E41F02A
:100580008CB78237B44E112B42E875DAB4F6DBD162
:10059000C8215ED86B2498F5E5E969A044E70743D4
:1005A00006BB46F60A052A78B986AA71707700015B
:1005B000030507090B0D0F11131517191B1D1F211B
:1005C000232527292B2D2F31333537393B3D3F410B
:1005D000434547494B4D4F51535557595B5D5F61FB
:1005E000636567696B6D6F71737577797B7D7F7DEF
:1005F0007B79777573716F6D6B69676563615F5D3B
:100600005B59575553514F4D4B49474543413F3D2A
:100610003B39373533312F2D2B29272523211F1D1A
:100620001B19171513110F0D0B090705030100FF07
:10063000FDFBF9F7F5F3F1EFEDEBE9E7E5E3E1DFDA
:10064000DDDBD9D7D5D3D1CFCDCBC9C7C5C3C1BFCA
:10065000BDBBB9B7B5B3B1AFADABA9A7A5A3A19FBA
:100660009D9B99979593918F8D8B898785838183A6
:100670008587898B8D8F91939597999B9D9FA1A33A
:10068000A5A7A9ABADAFB1B3B5B7B9BBBDBFC1C32A
:10069000C5C7C9CBCDCFD1D3D5D7D9DBDDDFE1E31A
:1006A000E5E7E9EBEDEFF1F3F5F7F9FBFDFEFFFE12
:1006B000FEFEFEFEFEFDFDFDFDFDFDFCFCFCFCFC6A
:1006C000FBFBFBFAFAFAF9F9F8F8F8F7F7F7F6F6A0
:1006D000F5F3F1EFEDEAE8E6E4E2DFDDDBD9D7D4CC
:1006E000D2D0CDCBC8C5C3C0BDBBB8B5B3B0ADAB20
:1006F000A8A6A3A09D9A9794918E8B8885827F7CD3
:10070000797673716E6C69676562605E5B59565489
:10071000524F4D4B48464543413F3E3C3A383635B3
:1007200033312F2E2C2A29272625242221201F1D54
:100730001C1B1A18171614141313121111100F0F73
:100740000E0E0D0C0C0B0A0A090909090908080804
:100750000807070707060606060606060605050536
:10076000050505050505050505050505050505043A
:10077000040404040404040404040403030303033E
:100780000302020202020202010101010101010150
:100790000100000000000000000000000000000058
:1007A0000000000000000000000000000000FFF852
:1007B000F2EBE5DFD8D2CCC5BFB9B2ACA59F999218
:1007C0008E8A86817D7975706C68645F5B57534F44
:1007D0004A494746444341403E3D3B3A3837353429
:1007E0003231302F2E2D2C2B2A2928272625242361
:1007F0002221201F1F1E1E1E1D1D1C1C1C1B1B1A20
:100800001A1A19191918181818171717171716166A
:100810001616151515151414141413131313131297
:1008200012121211111111101010100F0F0F0F0FC3
:100830000E0E0E0E0D0D0D0D0C0C0C0C0B0B0B0BF0
:100840000A0A0A0A0A09090909080808080808071B
:100850000707070706060606060606060605050537
:100860000505050505050505050505050505050439
:10087000040404040404040404040403030303033D
:10088000030202020202020201010101010101014F
:100890000100000000000000000000000000000057
:1008A0000000000000000000000000000000FFFE4B
:1008B000FEFEFEFEFEFDFDFDFDFDFDFCFCFCFCFC68
:1008C000FCFCFBFBFBFBFBFBFAFAFAFAFAFAF9F980
:1008D000F9F8F7F6F4F3F2F1F0EFEDECEBEAE9E713
:1008E000E6E5DBD2C8BEB4AAA0978D83796F665CBB
:1008F00052483E3C3A383533312F2D2A28262422BF
:100900001F1D1B191918181818171717171716165F
:100910001616151515151414141413131313131296
:1009200012121211111111101010100F0F0F0F0FC2
:100930000E0E0E0E0D0D0D0D0C0C0C0C0B0B0B0BEF
:100940000A0A0A0A0A09090909080808080808071A
:100950000707070706060606060606060605050536
:100960000505050505050505050505050505050438
:10097000040404040404040404040403030303033C
:10098000030202020202020201010101010101014E
:100990000100000000000000000000000000000056
:1009A0000000000000000000000000000000FFFC4C
:1009B000FAF8F6F4F2F0EEEBE9E7E5E3E1DFDDDA91
:1009C000D9D7D5D3D1D0CECCCAC8C7C5C3C1BFBE75
:1009D000BCBAB7B5B3B1AFACAAA8A6A4A19F9D9B62
:1009E00099969492908D8B89868482807D7B79768E
:1009F0007472706E6D6B696866656362605E5D5B84
:100A00005A5857555352504F4D4C4A484745444207
:100A1000413F3D3C3A3938373634333231302E2D70
:100A20002C2B2A292726252322201F1D1C1A1917A3
:100A300016141311100E0D0D0C0C0C0C0B0B0B0BD4
:100A40000A0A0A0A0A090909090808080808080719
:100A50000707070706060606060606060605050535
:100A60000505050505050505050505050505050437
:100A7000040404040404040404040403030303033B
:100A8000030202020202020201010101010101014D
:100A90000100000000000000000000000000000055
:100AA0000000000000000000000000000000000046
:100AB0000000240027002A00000000002500280074
:100AC0002B00000000002300260029000404040479
:100AD00004040404020202020202030303030303E8
:100AE00001020408102040800102040810200102C5
:100AF00004081020000000070002010000030406A3
:100B00000000000000000000DF0E11241FBECFEF28
:100B1000D4E0DEBFCDBF12E0A0E0B1E0EAE3F9E24D
:100B200002C005900D92AA33B107D9F712E0AAE3EB
:100B3000B2E001C01D92AC3FB107E1F71BE0CAE093
:100B4000DBE004C02297FE010E949714C830D10751
:100B5000C9F70E941D0C0C949B140C9400001F926A
:100B60000F920FB60F9211240F931F932F933F9361
:100B70004F935F936F937F938F939F93AF93BF93A5
:100B8000EF93FF938091B30086508093B3008091E0
:100B90002E01882331F080912E01815080932E0107
:100BA000BFC084E080932E0180911E0190911F01AF
:100BB00097FD2AC040914A0250914B0220911E019C
:100BC00030911F018091260190912701820F931F80
:100BD00090931F0180931E01E0911E01F0911F016F
:100BE000EE0FEF2FEE1FFF0BF195E40FF51FE491D1
:100BF000E0930A0180911E0190911F0197FF06C0AA
:100C00008FEF80930A0102C010920A0180912001A7
:100C10009091210197FD26C040914C0250914D02C8
:100C2000209120013091210180912801909129018A
:100C3000820F931F9093210180932001E091200166
:100C4000F0912101EE0FEF2FEE1FFF0BF195E40F56
:100C5000F51FE491E0930B01809120019091210117
:100C600097FF02C010920B01809122019091230105
:100C700097FD26C040914E0250914F0220912201D3
:100C80003091230180912A0190912B01820F931FB3
:100C90009093230180932201E0912201F09123019E
:100CA000EE0FEF2FEE1FFF0BF195E40FF51FE49110
:100CB000E0930C01809122019091230197FF02C0E3
:100CC00010920C01809124019091250197FD26C07E
:100CD0004091500250915102209124013091250100
:100CE00080912C0190912D01820F931F90932501EB
:100CF00080932401E0912401F0912501EE0FEF2F64
:100D0000EE1FFF0BF195E40FF51FE491E0930D0149
:100D1000809124019091250197FF02C010920D014E
:100D2000409142025091430220913A0230913B029D
:100D30008091020190910301820F931F90933B02D7
:100D400080933A0280913A0290913B02E92FFF276B
:100D5000E40FF51F149100910A0140914402509153
:100D6000450220913C0230913D0280910401909116
:100D70000501820F931F90933D0280933C02809166
:100D80003C0290913D02E92FFF27E40FF51FB4913B
:100D9000A0910B01409146025091470220913E02E2
:100DA00030913F028091060190910701820F931FBD
:100DB00090933F0280933E0280913E0290913F02C9
:100DC000E92FFF27E40FF51F749160910C0140910A
:100DD0004802509149022091400230914102809195
:100DE000080190910901820F931F90934102809313
:100DF0004002E0914002F0914102EF2FFF27E40F03
:100E0000F51FE49140910D018B2F992787FD909557
:100E1000B0E08A9F90018B9F300D9A9F300D112476
:100E2000232F330F330B812F992787FD909510E0E7
:100E3000DC01A09FC001A19F900DB09F900D1124D7
:100E4000892F990F990B280F391F872F992787FD15
:100E5000909570E0DC01A69FC001A79F900DB69F02
:100E6000900D1124892F990F990B280F391F8E2F60
:100E7000992787FD909550E0BC01649FC001659F54
:100E8000900D749F900D1124892F990F990B280FA5
:100E9000391F3595279535952795215827BD809180
:100EA0005202909153020196909353028093520202
:100EB000FF91EF91BF91AF919F918F917F916F9132
:100EC0005F914F913F912F911F910F910F900FBE06
:100ED0000F901F9018956F927F928F929F92AF9272
:100EE000BF92CF92DF92EF92FF920F931F9339013F
:100EF0004A01A7019601E82EFF24EE0CFF1CF70122
:100F0000EE5BFD4F71836083F701E65BFD4F11835C
:100F1000008360E070E080E89FE30E94311128ECDC
:100F200030E048E45DE30E9431110E94CF11F701E7
:100F3000EA5DFE4F71836083C401B3012AEF30E0A4
:100F40004AE75EE30E9431110E94CF11F701E25F90
:100F5000FE4F7183608326E131E0E20EF31EF7015C
:100F6000B182A0821F910F91FF90EF90DF90CF9000
:100F7000BF90AF909F908F907F906F900895CF9289
:100F8000DF92EF92FF920F931F9382E061E00E9445
:100F9000490D85E00E94B20C909355028093540253
:100FA00085E090E00E946A0C82E060E00E94490DBA
:100FB00085E00E94B20C8C019093570280935602F8
:100FC000609158027091590280915A0290915B028F
:100FD00026E636E646E65FE30E9446136B017C0197
:100FE0006091540270915502601B710B882777FD48
:100FF0008095982F0E94FD112DEC3CEC4CE45EE3B3
:101000000E9446139B01AC01C701B6010E94C910A2
:10101000609358027093590280935A0290935B0236
:101020001F910F91FF90EF90DF90CF90089582E095
:1010300061E00E94290D8EE061E00E94490D089553
:101040000F931F93262F082F10E030E0442737FD21
:101050004095542FCA01B9010E94FD1120E030E0F3
:101060004AE852E40E94C81020E238E94CE65DE309
:101070000E9446130E949E1120E030E04CED53E4A4
:101080000E9446132AEF30E04AE75EE30E943111E6
:101090000E94CF11000F111FF801E25FFE4F718314
:1010A0006083025E1E4FF801118210821F910F9122
:1010B00008952F923F924F925F926F927F928F92FC
:1010C0009F92AF92BF92CF92DF92EF92FF920F93D7
:1010D0001F93DF93CF93CDB7DEB7C250D1400FB689
:1010E000F894DEBF0FBECDBF82E08093B100809147
:1010F00070008260809370007894569A83EA84BD71
:1011000081E085BD8FE787BD8FEF88BD85E061E019
:101110000E94290DDE011196E0EBF1E080E80190DC
:101120000D928150E1F7DE01AF57BF4FE0E3F1E0F0
:1011300080E801900D928150E1F76EEA70E020E0C6
:1011400030E048E453E40EEA17E00F2EF0E0CF2E33
:10115000F0E0DF2EF0E8EF2EFFE3FF2EF02DACE203
:10116000AA2EA1E0BA2E0E946B0781E06EEA71E020
:1011700020E030E048EC52E4A12CF2E0BF2E0E94C7
:101180006B0782E06EEA75E020E030E048EC52E464
:101190000EEA18E00F2EF0E0CF2EF0E0DF2EF0E0A8
:1011A000EF2EFFE3FF2EF02DE8EEAE2EE3E0BE2E95
:1011B0000E946B0783E06EEA74E020E030E046E9CD
:1011C00054E40EEA19E00F2EFAE0CF2EF7EDDF2EF1
:1011D000F3EAEF2EFCE3FF2EF02D94EFA92E91E021
:1011E000B92E0E946B0789EE92E040E855E260E07C
:1011F00070E00E94D30D0E941708CF5FDE4F198266
:101200001882C150D140E0905802F09059020091EC
:101210005A0210915B02C801B70120E030E048ECAF
:1012200054E40E94D21218162CF460E070E080E8BA
:101230009FE308C0C801B70120E030E048EC54E467
:101240000E94311120E030E040E251E40E9431116F
:101250000E94A91320E030E040E85FE30E94C9103B
:1012600020E030E04FEF52E40E94461320E030E0EF
:1012700040E050E00E94D212882394F1C801B701E7
:1012800020E030E048EC54E40E94D21218162CF40E
:1012900060E070E080E89FE308C0C801B70120E08B
:1012A00030E048EC54E40E94311120E030E040E2AC
:1012B00051E40E9431110E94A91320E030E040E87F
:1012C0005FE30E94C91020E030E04FEF52E40E943B
:1012D000461320E030E040E05FE30E94C91031C0D7
:1012E000C801B70120E030E048EC54E40E94D2127B
:1012F00018162CF460E070E080E89FE308C0C80195
:10130000B70120E030E048EC54E40E94311120E0C5
:1013100030E040E251E40E9431110E94A91320E024
:1013200030E040E85FE30E94C91020E030E04FEF7A
:1013300052E40E94461320E030E040E05FE30E9468
:10134000C8100E94CA1185E00E94D00C0E94BF07FD
:101350008091520290915302895E934008F42CC10F
:10136000E0905802F090590200915A0210915B02ED
:10137000C801B70120E030E048EC54E40E94D212EA
:1013800018162CF4A0E050E040E86FE30CC0C80150
:10139000B70120E030E048EC54E40E943111A62F60
:1013A000572F482F692F89EE92E02A2F352FE42FEF
:1013B000F62FA901BF010E94BD10CF5FDE4F6880EC
:1013C000C150D1408FE16822CF5FDE4F8880998085
:1013D000C150D14015E0969487941A95E1F798E0B2
:1013E0008916910459F1E9E08E16910430F4F4E085
:1013F0008F16910409F071C00AC02CE08216910486
:10140000B9F180E18816910409F067C048C083E013
:101410006EEA75E020E030E84BEB54E40EEA19E0A8
:101420000F2EFFE8CF2EF2ECDF2EF5EFEF2EFCE3D0
:10143000FF2EF02DB4E6AB2EB12C17C083E06EEA80
:1014400074E020E030E84BEB54E40EEA19E00F2E94
:10145000FFE8CF2EF2ECDF2EF5EFEF2EFCE3FF2EB0
:10146000F02DACE2AA2EA1E0BA2E0E946B0735C087
:1014700081E06EEA75E020E030E048EC52E40EEAEC
:1014800017E00F2EF0E0CF2EF0E0DF2EF0E0EF2E91
:10149000F0E4FF2EF02DA12CF2E0BF2EE6CF81E08C
:1014A0006EEA71E020E030E048EC52E40EEA17E02A
:1014B0000F2EF0E0CF2EF0E0DF2EF0E8EF2EFFE36E
:1014C000FF2EF02DA12CE2E0BE2E0E946B07CF5F15
:1014D000DE4F19821882C150D140E1E8F0E0EC0FF4
:1014E000FD1FE80DF91D8081882369F0E1E0F0E03F
:1014F000EC0FFD1FE60DF11D8081882321F0109275
:101500001F0110921E01E1E8F0E0EC0FFD1FE80D55
:10151000F91D80A1882361F0E1E2F0E0EC0FFD1FEE
:10152000E60DF11D6081662319F081E00E9420081C
:10153000E1E8F0E0EC0FFD1FE80DF91DE05CFF4F66
:101540008081882361F0E1E4F0E0EC0FFD1FE60DFF
:10155000F11D6081662319F082E00E942008E1E815
:10156000F0E0EC0FFD1F8E0E9F1E80E690E0880ECF
:10157000991EF4018081882369F0E1E6F0E0EC0F28
:10158000FD1FE60DF11D8081882321F010922501B9
:10159000109224011092530210925202CF5FDE4F3C
:1015A00088819981C150D14001969370CF5FDE4F01
:1015B00099838883C150D14060910E0170910F01D1
:1015C000E0900E01F0900F01A0901E01B0901F015D
:1015D000609016017090170180E090E00E94FB116E
:1015E0001B012C0100E010E0C801B7010E94FB11B3
:1015F0007B018C01CC24DD24C601B5010E94FB11C6
:1016000020E03FEF4FE75AE40E9431119B01AC010B
:10161000C801B7010E9446137B018C01E0E0FEEF98
:101620006E0E7F1E882477FC8094982CC401B30131
:101630000E94FD119B01AC01C801B7010E94461335
:101640009B01AC01C201B1010E94C9100E94CF11DF
:101650007093030160930201609110017091110178
:10166000E0901001F0901101A0902001B0902101B4
:10167000609018017090190180E090E00E94FB11C9
:101680001B012C0100E010E0C801B7010E94FB1112
:101690007B018C01CC24DD24C601B5010E94FB1125
:1016A00020E03FEF4FE75AE40E9431119B01AC016B
:1016B000C801B7010E9446137B018C0180E09EEFB8
:1016C000680E791E882477FC8094982CC401B3019D
:1016D0000E94FD119B01AC01C801B7010E94461395
:1016E0009B01AC01C201B1010E94C9100E94CF113F
:1016F00070930501609304016091120170911301D0
:10170000E0901201F0901301A0902201B09023010B
:1017100060901A0170901B0180E090E00E94FB1124
:101720001B012C0100E010E0C801B7010E94FB1171
:101730007B018C01CC24DD24C601B5010E94FB1184
:1017400020E03FEF4FE75AE40E9431119B01AC01CA
:10175000C801B7010E9446137B018C01E0E0FEEF57
:101760006E0E7F1E882477FC8094982CC401B301F0
:101770000E94FD119B01AC01C801B7010E944613F4
:101780009B01AC01C201B1010E94C9100E94CF119E
:101790007093070160930601609114017091150127
:1017A000E0901401F0901501A0902401B090250163
:1017B00060901C0170901D0180E090E00E94FB1180
:1017C0001B012C0100E010E0C801B7010E94FB11D1
:1017D0007B018C01CC24DD24C601B5010E94FB11E4
:1017E00020E03FEF4FE75AE40E9431119B01AC012A
:1017F000C801B7010E9446137B018C0180E09EEF77
:10180000680E791E882477FC8094982CC401B3015B
:101810000E94FD119B01AC01C801B7010E94461353
:101820009B01AC01C201B1010E94C9100E94CF11FD
:101830007093090160930801E6CC0E94780C0E9425
:101840005908FDCF1F920F920FB60F9211242F93BC
:101850003F938F939F93AF93BF938091600290913A
:101860006102A0916202B09163023091640201961C
:10187000A11DB11D232F2D5F2D3720F02D5701966F
:10188000A11DB11D209364028093600290936102B8
:10189000A0936202B093630280915C0290915D021A
:1018A000A0915E02B0915F020196A11DB11D8093CF
:1018B0005C0290935D02A0935E02B0935F02BF91C1
:1018C000AF919F918F913F912F910F900FBE0F90ED
:1018D0001F901895019759F0FC01EE0FFF1FEE0FB6
:1018E000FF1F32978FB7F8943197F1F78FBF0895A4
:1018F000789484B5826084BD84B5816084BD85B5EB
:10190000826085BD85B5816085BDEEE6F0E08081B1
:1019100081608083E1E8F0E0808182608083808163
:1019200081608083E0E8F0E0808181608083E1EB8A
:10193000F0E0808184608083E0EBF0E08081816072
:101940008083EAE7F0E08081846080838081826028
:101950008083808181608083808180688083109211
:10196000C10008958F7090912F019295990F990F52
:10197000907C982B90937C0080917A008064809377
:101980007A0080917A0086FDFCCF2091780040910A
:101990007900942F80E030E0282B392BC90108957D
:1019A0001F93CF93DF93182FEB0161E00E94290D65
:1019B000E12FF0E0EC50F54F8491833051F48091A9
:1019C0008000806880938000D0938900C093880055
:1019D0003CC0843051F4809180008062809380000C
:1019E000D0938B00C0938A0030C0813039F42097A7
:1019F00029F184B5806884BDC7BD27C0823039F421
:101A00002097E1F084B5806284BDC8BD1EC08630D9
:101A100041F48091B00080688093B000C093B3001F
:101A200014C0873041F48091B00080628093B00090
:101A3000C093B4000AC0C038D1051CF4812F60E007
:101A400002C0812F61E00E94490DDF91CF911F916B
:101A50000895282F30E0C9018052954FFC019491E0
:101A60002453354FF9018491882391F0E82FF0E059
:101A7000EE0FFF1FE255F54FA591B491662329F4AF
:101A80008C91909589238C9308958C91892B8C93BC
:101A90000895482F50E0CA018C50954FFC012491C5
:101AA000CA018052954FFC0194914453554FFA015D
:101AB00034913323D1F1222331F1233021F4809169
:101AC00080008F7705C0243031F4809180008F7DB5
:101AD0008093800018C0213019F484B58F7704C03A
:101AE000223021F484B58F7D84BD0DC0263021F4D1
:101AF0008091B0008F7705C0273029F48091B00025
:101B00008F7D8093B000E32FF0E0EE0FFF1FE854CD
:101B1000F54FA591B491662329F48C919095892372
:101B20008C9308958C91892B8C9308951F920F921A
:101B30000FB60F9211242F933F934F935F936F93A0
:101B40007F938F939F93AF93BF93EF93FF934091B6
:101B5000C600E091E502F091E602CF01019660E84F
:101B600070E00E9431149C018091E7029091E8029C
:101B70002817390739F0EB59FD4F40833093E602BF
:101B80002093E502FF91EF91BF91AF919F918F91CB
:101B90007F916F915F914F913F912F910F900FBE69
:101BA0000F901F9018955F926F927F928F929F92E5
:101BB000AF92BF92CF92DF92EF92FF920F931F935B
:101BC000CF93DF93EC013A014B01413482E4580793
:101BD0008FE0680780E078070CF07FC060E874E869
:101BE0008EE190E0A40193010E94661421503040E0
:101BF00040405040CA01B90122E030E040E050E0EE
:101C00000E94661459016A01A6019501209530953C
:101C10004095509594E0220F331F441F551F9A950D
:101C2000D1F760E074E284EF90E00E946614CA018C
:101C3000B9012FEF30E040E050E00E941214A401FF
:101C400093010E946614C90181509F4F181619060E
:101C50001CF4522E5A9403C055245394521A60E037
:101C600079E08DE390E0A40193010E946614215075
:101C7000304040405040CA01B90122E030E040E02D
:101C800050E00E946614209530954095509583E071
:101C9000220F331F441F551F8A95D1F760E074E26D
:101CA00084EF90E00E946614CA01B9012FEF30E082
:101CB00040E050E00E941214A40193010E946614B7
:101CC000C90181509F4F181619061CF4822F8150AC
:101CD00002C081E0821B851500F5E885F98581E069
:101CE00090E00A8802C0880F991F0A94E2F7808367
:101CF00060E079E08DE390E0A40193010E94661416
:101D00002150304040405040CA01B90122E030E04B
:101D100040E050E00E94661404C0E885F985108216
:101D20009501EC81FD813083EE81FF812083EA857E
:101D3000FB85208141E050E0CA010E8402C0880F7B
:101D4000991F0A94E2F7282B2083EA85FB852081DE
:101D5000CA010F8402C0880F991F0A94E2F7282B4A
:101D60002083EA85FB858081088802C0440F551FC7
:101D70000A94E2F7842B8083DF91CF911F910F911A
:101D8000FF90EF90DF90CF90BF90AF909F908F909B
:101D90007F906F905F900895FC01A085B1852189A7
:101DA0008C9190E0022E02C0959587950A94E2F7F7
:101DB00080FFF6CF0484F585E02D6083089584E3E9
:101DC00092E09093EA028093E90285E692E0909394
:101DD000EC028093EB0285EC90E09093EE0280930E
:101DE000ED0284EC90E09093F0028093EF0280EC9F
:101DF00090E09093F2028093F10281EC90E0909356
:101E0000F4028093F30286EC90E09093F6028093C4
:101E1000F50284E08093F70283E08093F80287E084
:101E20008093F90285E08093FA0281E08093FB02BF
:101E300008950F931F93CF93DF938C01EB0109C09B
:101E40002196D801ED91FC910190F081E02DC8011F
:101E5000099568816623A1F7DF91CF911F910F91BA
:101E60000895EF92FF920F931F93CF93DF938C010E
:101E70007B01EA010CC0D7016D917D01D801ED9184
:101E8000FC910190F081E02DC801099521972097E0
:101E900091F7DF91CF911F910F91FF90EF900895EF
:101EA000DC01ED91FC910280F381E02D099508950C
:101EB0000F931F938C01DC01ED91FC910190F08157
:101EC000E02D6DE00995D801ED91FC910190F08134
:101ED000E02DC8016AE009951F910F9108952F9296
:101EE0003F924F925F926F927F928F929F92AF92AA
:101EF000BF92CF92DF92EF92FF920F931F93DF93E7
:101F0000CF93CDB7DEB7A0970FB6F894DEBF0FBE64
:101F1000CDBF1C016A017B014115510561057105A9
:101F200049F4DC01ED91FC910190F081E02D60E33A
:101F3000099554C0882499245401422E55246624BE
:101F4000772401E010E00C0F1D1F080D191DC701BB
:101F5000B601A30192010E944414F8016083089421
:101F6000811C911CA11CB11CC701B601A3019201E7
:101F70000E944414C901DA016C017D01C114D1042D
:101F8000E104F104F1F681E0E82EF12CEC0EFD1EE7
:101F9000E80CF91C3E010894611C711CD501C401B8
:101FA0000197A109B1096C01C818D90814C0F6013C
:101FB000EE0DFF1D60816A3010F4605D01C0695C48
:101FC000D101ED91FC910190F081E02DC1010995C5
:101FD0000894E108F1086E147F0449F7A0960FB643
:101FE000F894DEBF0FBECDBFCF91DF911F910F914F
:101FF000FF90EF90DF90CF90BF90AF909F908F9029
:102000007F906F905F904F903F902F9008952AE0BF
:102010000E946F0F0895EF92FF920F931F93CF933B
:10202000DF93EC017A018B0177FF0FC0E881F98122
:102030000190F081E02D6DE2099510950095F094E6
:10204000E094E11CF11C011D111DCE01B801A70196
:102050002AE00E946F0FDF91CF911F910F91FF90A7
:10206000EF9008959F92AF92BF92CF92DF92EF923E
:10207000FF920F931F93CF93DF93EC017A018B01B3
:10208000922ECB01BA0120E030E040E050E00E9407
:102090002D11882364F4E881F9810190F081E02D0D
:1020A000CE016DE2099517FB109517F9109520E008
:1020B00030E040E05FE3AA240BC0CA01B90120E090
:1020C00030E040E251E40E9431119B01AC01A39445
:1020D000A91498F3C801B7010E94C9105B016C01F3
:1020E0000E94CF117B018C01CE01B801A7010E9493
:1020F0000710992029F0CE0160E071E00E94500F96
:10210000C801B7010E94FB119B01AC01C601B501DA
:102110000E94C81020C020E030E040E251E40E945C
:1021200046137B018C010E94CA115B016C01CC2417
:10213000B7FCC094DC2CCE01B601A5010E940B10A7
:10214000C601B5010E94FD119B01AC01C801B70198
:102150000E94C8109A949920F1F6DF91CF911F91B7
:102160000F91FF90EF90DF90CF90BF90AF909F9036
:10217000089522E00E94321008950F931F938C015E
:102180000E94B910C8010E94580F1F910F91089525
:102190005058BB27AA270ED0CBC1BCD130F0C1D13B
:1021A00020F031F49F3F11F41EF48CC10EF4E09541
:1021B000E7FB82C1E92FCDD180F3BA17620773071D
:1021C0008407950718F071F49EF5E5C10EF4E095CB
:1021D0000B2EBA2FA02D0B01B90190010C01CA01E1
:1021E000A0011124FF27591B99F0593F50F4503E8C
:1021F00068F11A16F040A22F232F342F4427585F7E
:10220000F3CF469537952795A795F0405395C9F795
:102210007EF41F16BA0B620B730B840BBAF091504D
:10222000A1F0FF0FBB1F661F771F881FC2F70EC0EC
:10223000BA0F621F731F841F48F4879577956795BF
:10224000B795F7959E3F08F0B3CF9395880F08F0A8
:102250009927EE0F9795879508950AD108F481E0A4
:1022600008950CD065C15DD140F054D130F021F417
:102270005F3F19F021C151118FC124C16AD198F378
:102280009923C9F35523B1F3951B550BBB27AA27F7
:1022900062177307840738F09F5F5F4F220F331F69
:1022A000441FAA1FA9F333D00E2E3AF0E0E830D035
:1022B00091505040E695001CCAF729D0FE2F27D038
:1022C000660F771F881FBB1F261737074807AB0706
:1022D000B0E809F0BB0B802DBF01FF2793585F4F7B
:1022E0002AF09E3F510568F0E7C056C15F3FECF30E
:1022F000983EDCF3869577956795B795F7959F5F40
:10230000C9F7880F911D9695879597F90895E1E093
:10231000660F771F881FBB1F621773078407BA07F2
:1023200020F0621B730B840BBA0BEE1F88F7E0954D
:10233000089519F40EF0C0C02EC1C4C012D1C8F364
:102340009638C0F707F80F92E8942BE33AEA48EB87
:102350005FE7AAD10F920F920F924DB75EB70F921F
:1023600062D1E8E6F0E0B1D04F915F91EF91FF913B
:10237000E595EE1FFF1F49F0FE57E0684427EE0F7A
:10238000441FFA95E1F74195550B19D10F9007FEBF
:102390000DC1089504D06894B111FEC00895E1D034
:1023A00088F09F5790F0B92F9927B751A0F0D1F03E
:1023B000660F771F881F991F1AF0BA95C9F712C0C8
:1023C000B13081F0E8D0B1E00895E5C0672F782FF3
:1023D0008827B85F39F0B93FCCF386957795679534
:1023E000B395D9F73EF490958095709561957F4FA0
:1023F0008F4F9F4F0895E89409C097FB3EF4909546
:102400008095709561957F4F8F4F9F4F9923A9F0CD
:10241000F92F96E9BB279395F6958795779567955C
:10242000B795F111F8CFFAF4BB0F11F460FF1BC0A0
:102430006F5F7F4F8F4F9F4F16C0882311F096E933
:1024400011C0772321F09EE8872F762F05C06623E1
:1024500071F096E8862F70E060E02AF09A95660F9A
:10246000771F881FDAF7880F9695879597F9089553
:10247000990F0008550FAA0BE0E8FEEF1616170695
:10248000E807F907C0F012161306E407F50798F0FD
:10249000621B730B840B950B39F40A2661F0232B16
:1024A000242B252B21F408950A2609F4A140A69592
:1024B0008FEF811D811D089597F99F6780E870E077
:1024C00060E008959FEF80EC0895DF93CF931F9312
:1024D0000F93FF92EF92DF927B018C01689405C00D
:1024E000DA2EEF01DFD0FE01E894A5912591359118
:1024F00045915591AEF3EF015DDEFE019701A80114
:10250000DA9479F7DF90EF90FF900F911F91CF91C0
:10251000DF91089500240A94161617061806090676
:10252000089500240A941216130614060506089549
:10253000092E0394000C11F4882352F0BB0F40F4D1
:10254000BF2B11F460FF04C06F5F7F4F8F4F9F4F11
:10255000089557FD9058440F551F59F05F3F71F093
:102560004795880F97FB991F61F09F3F79F08795FA
:102570000895121613061406551FF2CF4695F1DF83
:1025800008C0161617061806991FF1CF8695710513
:10259000610508940895E894BB2766277727CB0147
:1025A00097F9089565DF08F48FEF08959B01AC015A
:1025B00060E070E080E89FE354CE7ECFD0C0D1DFF2
:1025C000E8F39923D9F3940F511DBBF39150504078
:1025D00094F059F0882332F0660F771F881F9150CE
:1025E0005040C1F79E3F510544F7880F911D9695C5
:1025F000879597F908955F3FACF0983E9CF0BB2714
:10260000869577956795B79508F4B1609395C1F76E
:10261000BB0F58F711F460FFE8CF6F5F7F4F8F4F0C
:102620009F4FE3CFB9CFFA01DC01AA0FBB1F9B017B
:10263000AC01BF5728F422273327442750781FC006
:10264000B75188F4AB2F0024469537952795011C88
:10265000A395D2F3002069F0220F331F441FB395D6
:10266000DAF30DD095CD61307105A0E88A07B9463F
:1026700030F49B01AC016627772788279078309645
:1026800021F0208331834283538308950BD050CFB0
:1026900041DF28F046DF18F0952309F00DCF12CF67
:1026A00011247ACF56DFA0F3959FD1F3950F50E018
:1026B000551F629FF001729FBB27F00DB11D639FF4
:1026C000AA27F00DB11DAA1F649F6627B00DA11D9A
:1026D000661F829F2227B00DA11D621F739FB00D40
:1026E000A11D621F839FA00D611D221F749F3327B0
:1026F000A00D611D231F849F600D211D822F762F49
:102700006A2F11249F5750408AF0E1F088234AF045
:10271000EE0FFF1FBB1F661F771F881F9150504091
:10272000A9F79E3F510570F0C7CE36CF5F3FECF35F
:10273000983EDCF3869577956795B795F795E7957D
:102740009F5FC1F7FE2B880F911D9695879597F98E
:1027500008959F9315D00F9007FCEE5F41C09F3FF7
:1027600049F0915028F4869577956795B7959F5FC6
:1027700080389F4F880F9695879597F90895A2CE38
:10278000F0DEE8F3E894EFEFBB273FE048EC5FE7CB
:102790006B3D73078407950708F1FF279F57B25ACF
:1027A0006A4D7F40894CF04032F4BE556542704F0F
:1027B0008643FF4F0894EE1F915030F0BB0F661F09
:1027C000771F881FFF1FEBCF9EE7882332F0BB0FD8
:1027D000661F771F881F9A95C1F79395E095BFCF25
:1027E000EF93E0FF06C0A2EA2AED3FE049EC5FEB81
:1027F000E1DC9EDE0F90039401FC9058E0E9F0E0EC
:1028000000C09F938F937F936F93FF93EF939B01F0
:10281000AC013CDFEF91FF9158DE2F913F914F913A
:102820005F9134CF629FD001739FF001829FE00DD2
:10283000F11D649FE00DF11D929FF00D839FF00D3F
:10284000749FF00D659FF00D9927729FB00DE11DEB
:10285000F91F639FB00DE11DF91FBD01CF011124C8
:10286000089597FB092E07260AD077FD04D049D09A
:1028700006D000201AF4709561957F4F0895F6F701
:10288000909581959F4F0895A1E21A2EAA1BBB1B1C
:10289000FD010DC0AA1FBB1FEE1FFF1FA217B3072C
:1028A000E407F50720F0A21BB30BE40BF50B661F42
:1028B000771F881F991F1A9469F760957095809506
:1028C00090959B01AC01BD01CF01089597FB092EA6
:1028D00005260ED057FD04D0D7DF0AD0001C38F4EF
:1028E00050954095309521953F4F4F4F5F4F08953C
:1028F000F6F790958095709561957F4F8F4F9F4F1C
:102900000895AA1BBB1B51E107C0AA1FBB1FA61736
:10291000B70710F0A61BB70B881F991F5A95A9F788
:1029200080959095BC01CD010895EE0FFF1F059095
:0A293000F491E02D0994F894FFCF14
:10293A002E00E803C8002C019001FFFFFFFFF401FD
:10294A00F401F401F4011400000040007F0000804B
:10295A000080008000800A000A000A000A000401C0
:10296A000000010101010101000101010101010150
:10297A000001010101010101000000000000000046
:10298A00010101010101010101010101010101012D
:10299A00010101010101010101010101010101011D
:1029AA00000000000000000000000000000000001D
:1029BA000001010101010101010101010101000000
:1029CA0000000000000000000001010101010101F6
:1029DA0000000001010101010101010101010101E0
:1029EA0001000000010000000100000001000000D9
:1029FA0001000000010000000100000001000000C9
:102A0A003000002900002C002C00002E00002900B4
:102A1A003000002900002C00002C002E000033009A
:102A2A000000003200000000000000320000000038
:102A3A000000003200000000000000320000000028
:102A4A000000010000000100000001000000010078
:102A5A000000010000000100000001000000010068
:0A2A6A0000000000CC0E190F310F20
:00000001FF
