:100000000C9471050C9499050C9499050C94990520
:100010000C9499050C9499050C9499050C949B05E6
:100020000C9499050C9499050C9499050C949905D8
:100030000C9499050C9499050C9499050C949905C8
:100040000C94B70A0C9499050C942B0C0C949905FC
:100050000C9499050C9499050C9499050C949905A8
:100060000C9499050C94990505A84CCDB2D44EB9C1
:100070003836A9020C50B9918688083CA6AAAA2A4B
:10008000BE000000803F000306090C0F1215181B6C
:100090001E2124272A2D303336393B3E4143464921
:1000A0004B4E50525557595B5E6062646667696B90
:1000B0006C6E7071727475767778797A7B7B7C7DE3
:1000C0007D7E7E7E7E7E7F7E7E7E7E7E7D7D7C7B57
:1000D0007B7A7978777675747271706E6C6B6967FC
:1000E000666462605E5B59575552504E4B494643B9
:1000F000413E3B393633302D2A2724211E1B18154B
:10010000120F0C09060300FDFAF7F4F1EEEBE8E537
:10011000E2DFDCD9D6D3D0CDCAC7C5C2BFBDBAB71E
:10012000B5B2B0AEABA9A7A5A2A09E9C9A9997958F
:100130009492908F8E8C8B8A89888786858584831C
:100140008382828282828182828282828383848588
:1001500085868788898A8B8C8E8F909294959799C3
:100160009A9C9EA0A2A5A7A9ABAEB0B2B5B7BABDE6
:10017000BFC2C5C7CACDD0D3D6D9DCDFE2E5E8EB34
:10018000EEF1F4F7FAFC8182838485868788898A78
:100190008B8C8D8E8F909192939495969798999A37
:1001A0009B9C9D9E9FA0A1A2A3A4A5A6A7A8A9AA27
:1001B000ABACADAEAFB0B1B2B3B4B5B6B7B8B9BA17
:1001C000BBBCBDBEBFC0C1C2C3C4C5C6C7C8C9CA07
:1001D000CBCCCDCECFD0D1D2D3D4D5D6D7D8D9DAF7
:1001E000DBDCDDDEDFE0E1E2E3E4E5E6E7E8E9EAE7
:1001F000EBECEDEEEFF0F1F2F3F4F5F6F7F8F9FAD7
:10020000FBFCFDFEFF0000010203040506070809D0
:100210000A0B0C0D0E0F10111213141516171819C6
:100220001A1B1C1D1E1F20212223242526272829B6
:100230002A2B2C2D2E2F30313233343536373839A6
:100240003A3B3C3D3E3F4041424344454647484996
:100250004A4B4C4D4E4F5051525354555657585986
:100260005A5B5C5D5E5F6061626364656667686976
:100270006A6B6C6D6E6F7071727374757677787966
:100280007A7B7C7D7E7F807F7E7D7C7B7A797877B0
:10029000767574737271706F6E6D6C6B6A69686776
:1002A000666564636261605F5E5D5C5B5A59585766
:1002B000565554535251504F4E4D4C4B4A49484756
:1002C000464544434241403F3E3D3C3B3A39383746
:1002D000363534333231302F2E2D2C2B2A29282736
:1002E000262524232221201F1E1D1C1B1A19181726
:1002F000161514131211100F0E0D0C0B0A09080716
:100300000605040302010000FFFEFDFCFBFAF9F8FC
:10031000F7F6F5F4F3F2F1F0EFEEEDECEBEAE9E8E5
:10032000E7E6E5E4E3E2E1E0DFDEDDDCDBDAD9D8D5
:10033000D7D6D5D4D3D2D1D0CFCECDCCCBCAC9C8C5
:10034000C7C6C5C4C3C2C1C0BFBEBDBCBBBAB9B8B5
:10035000B7B6B5B4B3B2B1B0AFAEADACABAAA9A8A5
:10036000A7A6A5A4A3A2A1A09F9E9D9C9B9A999895
:1003700097969594939291908F8E8D8C8B8A898885
:100380008786858483817F7F7F7F7F7F7F7F7F7F5D
:100390007F7F7F7F7F7F7F7F7F7F7F7F7F7F7F7F6D
:1003A0007F7F7F7F7F7F7F7F7F7F7F7F7F7F7F7F5D
:1003B0007F7F7F7F7F7F7F7F7F7F7F7F7F7F7F7F4D
:1003C0007F7F7F7F7F7F7F7F7F7F7F7F7F7F7F7F3D
:1003D0007F7F7F7F7F7F7F7F7F7F7F7F7F7F7F7F2D
:1003E0007F7F7F7F7F7F7F7F7F7F7F7F7F7F7F7F1D
:1003F0007F7F7F7F7F7F7F7F7F7F7F7F7F7F7F7F0D
:100400007F7F7F7F7F7F83838383838383838383D4
:1004100083838383838383838383838383838383AC
:10042000838383838383838383838383838383839C
:10043000838383838383838383838383838383838C
:10044000838383838383838383838383838383837C
:10045000838383838383838383838383838383836C
:10046000838383838383838383838383838383835C
:10047000838383838383838383838383838383834C
:100480008383838383FFC2B8A49E629960A7E3C974
:1004900062F88A0D0BFF4CF88C3321ABD5F08ED16E
:1004A000C18F6DD981C50076463E3655337A3C1EE4
:1004B00082E747AEF540A1927F25F2C733FCD1B069
:1004C0006E078B5941C632EB218FEA6FD26C70C731
:1004D0009135EBEA81EEF75F5863EFFD4A027BE16D
:1004E00035F95BB00F90720E8DC9165F153597BD4B
:1004F000E7190D3A87C267576D26B1C4F0BCA55AFB
:10050000709D7657C3DCD8D9E222539CD58ECAF8A9
:10051000DCCC4716DF74097218A5D096FEE167158A
:10052000752C73C535617C4278D439A0E82E206FD4
:10053000C8852EF561BAF4A7AF18E3E94D2AD808AB
:100540009EDDEB743DD77442A8165FE128CDB21C46
:10055000037C5C51E54E41F08CB78237B44E112BD1
:1005600042E875DAB4F6DBD1C8215ED86B2498F581
:10057000E5E969A044E7074306BB46F60A052A7881
:10058000B986AA7170770001030507090B0D0F11D9
:10059000131517191B1D1F21232527292B2D2F313B
:1005A000333537393B3D3F41434547494B4D4F512B
:1005B000535557595B5D5F61636567696B6D6F711B
:1005C000737577797B7D7F7D7B79777573716F6DBF
:1005D0006B69676563615F5D5B59575553514F4D5B
:1005E0004B49474543413F3D3B39373533312F2D4B
:1005F0002B29272523211F1D1B19171513110F0D3B
:100600000B090705030100FFFDFBF9F7F5F3F1EF17
:10061000EDEBE9E7E5E3E1DFDDDBD9D7D5D3D1CFFA
:10062000CDCBC9C7C5C3C1BFBDBBB9B7B5B3B1AFEA
:10063000ADABA9A7A5A3A19F9D9B99979593918FDA
:100640008D8B8987858381838587898B8D8F919316
:100650009597999B9D9FA1A3A5A7A9ABADAFB1B35A
:10066000B5B7B9BBBDBFC1C3C5C7C9CBCDCFD1D34A
:10067000D5D7D9DBDDDFE1E3E5E7E9EBEDEFF1F33A
:10068000F5F7F9FBFDFEFFFEFEFEFEFEFEFDFDFDA5
:10069000FDFDFDFCFCFCFCFCFBFBFBFAFAFAF9F9A6
:1006A000F8F8F8F7F7F7F6F6F5F3F1EFEDEAE8E624
:1006B000E4E2DFDDDBD9D7D4D2D0CDCBC8C5C3C00F
:1006C000BDBBB8B5B3B0ADABA8A6A3A09D9A979497
:1006D000918E8B8885827F7C797673716E6C696769
:1006E0006562605E5B595654524F4D4B48464543D8
:1006F000413F3E3C3A38363533312F2E2C2A2927BC
:100700002625242221201F1D1C1B1A18171614141D
:100710001313121111100F0F0E0E0D0C0C0B0A0AF1
:10072000090909090908080808070707070606064E
:100730000606060606050505050505050505050564
:100740000505050505050504040404040404040462
:10075000040404030303030303020202020202026D
:100760000101010101010101010000000000000080
:100770000000000000000000000000000000000079
:10078000000000000000FFF8F2EBE5DFD8D2CCC596
:10079000BFB9B2ACA59F99928E8A86817D7975701A
:1007A0006C68645F5B57534F4A4947464443414036
:1007B0003E3D3B3A383735343231302F2E2D2C2BFD
:1007C0002A292827262524232221201F1F1E1E1EFA
:1007D0001D1D1C1C1C1B1B1A1A1A19191918181874
:1007E00018171717171716161616151515151414AA
:1007F00014141313131313121212121111111110D6
:100800001010100F0F0F0F0F0E0E0E0E0D0D0D0D01
:100810000C0C0C0C0B0B0B0B0A0A0A0A0A0909092F
:100820000908080808080807070707070606060654
:100830000606060606050505050505050505050563
:100840000505050505050504040404040404040461
:10085000040404030303030303020202020202026C
:10086000010101010101010101000000000000007F
:100870000000000000000000000000000000000078
:10088000000000000000FFFEFEFEFEFEFEFDFDFD7E
:10089000FDFDFDFCFCFCFCFCFCFCFBFBFBFBFBFB9B
:1008A000FAFAFAFAFAFAF9F9F9F8F7F6F4F3F2F1D2
:1008B000F0EFEDECEBEAE9E7E6E5DBD2C8BEB4AA7F
:1008C000A0978D83796F665C52483E3C3A38353349
:1008D000312F2D2A282624221F1D1B1919181818FC
:1008E00018171717171716161616151515151414A9
:1008F00014141313131313121212121111111110D5
:100900001010100F0F0F0F0F0E0E0E0E0D0D0D0D00
:100910000C0C0C0C0B0B0B0B0A0A0A0A0A0909092E
:100920000908080808080807070707070606060653
:100930000606060606050505050505050505050562
:100940000505050505050504040404040404040460
:10095000040404030303030303020202020202026B
:10096000010101010101010101000000000000007E
:100970000000000000000000000000000000000077
:10098000000000000000FFFCFAF8F6F4F2F0EEEBD5
:10099000E9E7E5E3E1DFDDDAD9D7D5D3D1D0CECCB5
:1009A000CAC8C7C5C3C1BFBEBCBAB7B5B3B1AFAC87
:1009B000AAA8A6A4A19F9D9B99969492908D8B899D
:1009C000868482807D7B79767472706E6D6B6968C7
:1009D00066656362605E5D5B5A5857555352504F6F
:1009E0004D4C4A4847454442413F3D3C3A393837EF
:1009F0003634333231302E2D2C2B2A29272625232D
:100A000022201F1D1C1A191716141311100E0D0D7C
:100A10000C0C0C0C0B0B0B0B0A0A0A0A0A0909092D
:100A20000908080808080807070707070606060652
:100A30000606060606050505050505050505050561
:100A4000050505050505050404040404040404045F
:100A5000040404030303030303020202020202026A
:100A6000010101010101010101000000000000007D
:100A70000000000000000000000000000000000076
:100A800000000000000000000000240027002A00F1
:100A900000000000250028002B00000000002300BB
:100AA00026002900040404040404040402020202CF
:100AB0000202030303030303010204081020408021
:100AC00001020408102001020408102000000007A1
:100AD0000002010000030406000000000000000006
:100AE000740D11241FBECFEFD4E0DEBFCDBF11E0E7
:100AF000A0E0B1E0E2E3F2E202C005900D92A8337B
:100B0000B107D9F711E0A8E3B1E001C01D92AA3FF7
:100B1000B107E1F71AE0C2EEDAE004C02297FE0165
:100B20000E941311C03ED107C9F70E94B20A0C946B
:100B300017110C9400001F920F920FB60F92112400
:100B40000F931F932F933F934F935F936F937F93D5
:100B50008F939F93AF93BF93EF93FF938091B300D5
:100B600086508093B30080912C01882321F08091DE
:100B70002C01815001C084E080932C014091400100
:100B8000509141012091380130913901809100014B
:100B900090910101820F931F909339018093380146
:100BA0008091380190913901E92FFF27E40FF51F5B
:100BB000149100910801409142015091430120910C
:100BC0003A0130913B018091020190910301820F23
:100BD000931F90933B0180933A0180913A01909149
:100BE0003B01E92FFF27E40FF51FB491A091090104
:100BF000409144015091450120913C0130913D01CB
:100C00008091040190910501820F931F90933D0103
:100C100080933C0180913C0190913D01E92FFF2799
:100C2000E40FF51F749160910A01409146015091C3
:100C3000470120913E0130913F0180910601909142
:100C40000701820F931F90933F0180933E01E09133
:100C50003E01F0913F01EF2FFF27E40FF51FE491D4
:100C600040910B018B2F992787FD9095B0E08A9FCB
:100C700090018B9F300D9A9F300D1124232F330F3D
:100C8000330B812F992787FD909510E0DC01A09F01
:100C9000C001A19F900DB09F900D1124892F990F35
:100CA000990B280F391F872F992787FD909570E0A2
:100CB000DC01A69FC001A79F900DB69F900D112447
:100CC000892F990F990B280F391F8E2F992787FD90
:100CD000909550E0BC01649FC001659F900D749F8A
:100CE000900D1124892F990F990B280F391F3595D5
:100CF000279535952795215827BD809150019091D2
:100D0000510101969093510180935001FF91EF9111
:100D1000BF91AF919F918F917F916F915F914F9113
:100D20003F912F911F910F910F900FBE0F901F9029
:100D300018956F927F928F929F92AF92BF92CF92AF
:100D4000DF92EF92FF920F931F9339014A01A7019F
:100D50009601E82EFF24EE0CFF1CF701E05CFE4F2D
:100D600071836083F701E85BFE4F1183008360E0CD
:100D700070E080E89FE30E944E0E28EC30E048E4EB
:100D80005DE30E944E0E0E94BB0EF701EC5DFE4F2C
:100D900071836083C401B3012AEF30E04AE75EE368
:100DA0000E944E0E0E94BB0EF701E45FFE4F71835E
:100DB000608324E131E0E20EF31EF701B182A082EC
:100DC0001F910F91FF90EF90DF90CF90BF90AF9069
:100DD0009F908F907F906F9008959F92AF92BF9257
:100DE000CF92DF92EF92FF920F931F93A090560144
:100DF000B0905701C0905801D0905901C601B5017B
:100E000020E030E048EC54E40E94BE0F1816BCF11C
:100E1000C601B50120E030E048EC54E40E944E0EDB
:100E20007B018C01992420E030E040E050E00E94FA
:100E30004A0E88231CF4992493940AC0C801B70170
:100E400020E030E040E85FE30E94BE0F1816BCF0DF
:100E5000C601B50120E030E048EC54E40E94BE0F2A
:100E600018166CF09920A9F00F2EF0E0EF2EF0E0AC
:100E7000FF2EF0E00F2FF0E01F2FF02D0AC00F2EF5
:100E8000F0E0EF2EF0E0FF2EF0E80F2FFFE31F2F32
:100E9000F02DB701C8011F910F91FF90EF90DF90E7
:100EA000CF90BF90AF909F900895CF92DF92EF9236
:100EB000FF920F931F9382E061E00E94DE0B85E0BA
:100EC0000E94470B909353018093520185E090E07C
:100ED0000E94FF0A82E060E00E94DE0B85E00E9433
:100EE000470B8C01909355018093540160915601FA
:100EF00070915701809158019091590126E636E68C
:100F000046E65FE30E94C20F6B017C0160915201D3
:100F100070915301601B710B882777FD8095982F86
:100F20000E94E90E2DEC3CEC4CE45EE30E94C20F03
:100F30009B01AC01C701B6010E94E60D609356010A
:100F40007093570180935801909359011F910F910D
:100F5000FF90EF90DF90CF90089582E061E00E94D3
:100F6000BE0B8EE061E00E94DE0B08952F923F924F
:100F70004F925F926F927F928F929F92AF92BF92A9
:100F8000CF92DF92EF92FF920F931F93DF93CF9355
:100F9000CDB7DEB728970FB6F894DEBF0FBECDBF32
:100FA00082E08093B1008091700082608093700035
:100FB0007894569A83EA84BD81E085BD8FE787BD2A
:100FC0008FEF88BD85E061E00E94BE0B80E066E89F
:100FD00073E020E030E048E453E406E817E00F2E29
:100FE000F0E0CF2EF0E0DF2EF0E8EF2EFFE3FF2E53
:100FF000F02DFCE2AF2EF1E0BF2E0E94990681E0B9
:1010000066E870E020E030E048EC52E4A12CE2E039
:10101000BE2E0E94990682E066E875E020E030E08E
:1010200048EC52E406E818E00F2EF0E0CF2EF0E096
:10103000DF2EF0E0EF2EFFE3FF2EF02D98EEA92E2D
:1010400093E0B92E0E94990683E066E874E020E000
:1010500030E046E954E406E819E00F2EFAE0CF2E1E
:10106000F7EDDF2EF3EAEF2EFCE3FF2EF02DB4EFC9
:10107000AB2EB1E0BB2E0E94990687EE91E040E8CE
:1010800055E260E070E00E94680C0E94AD0780E0CD
:1010900090E0A0E8BFE389839A83AB83BC830E947E
:1010A000ED065B016C016D817E818F8198852981C0
:1010B0003A814B815C810E94E60D6D837E838F8334
:1010C000988769817A818B819C8120E030E040E2C1
:1010D00052E40E94C20F0E94BB0E70930D016093F8
:1010E0000C0169817A818B819C8120E030E040EAAB
:1010F00052E40E94C20F0E94BB0E70930F016093D6
:101100000E01C601B50120E030E040E251E40E944A
:10111000C20F0E94BB0E7093110160931001609189
:1011200010017091110180E090E00E94E70E24EA26
:1011300030E74DE75FE30E94C20F7B018C01C601DF
:10114000B50120E030E040EA52E40E94C20F2AE0FC
:1011500037ED43E25CE30E94C20F9B01AC01C80182
:10116000B7010E94E60D0E94BB0E709313016093BD
:101170001201C601B50120E030E04FE753E40E94C0
:10118000C20F0E94BB0E7B018C0160930901698133
:101190007A818B819C8120E030E04FE753E40E940C
:1011A000C20F0E94BB0E60930801E0920A01609397
:1011B0000B016D817E818F81988520E030E048ECC5
:1011C00053E40E944E0E0E94251020E030E040E8DB
:1011D0005FE30E94E60D20E030E04FEF52E40E9412
:1011E000C20F7B018C0120E030E040E050E00E9423
:1011F000BE0F88234CF0C801B70120E030E040E08A
:101200005FE30E94E60D08C0C801B70120E030E0AE
:1012100040E05FE30E94E50D0E94B60E85E00E946B
:10122000650B0E945507C601B50120E030E040E0A3
:101230005FE30E94BE0F18160CF569817A818B81DD
:101240009C8122E739EF4FE75FE30E94C20F7B01E9
:101250008C01C601B50120E030E048EC52E40E9468
:10126000C20F27E137EB41ED58E30E94C20F9B010B
:10127000AC01C801B7010E94E60D0AC069817A81FC
:101280008B819C8127E73EEB4FE75FE30E94C20F13
:1012900069837A838B839C8369817A818B819C812A
:1012A00020E030E048EC52E40E944A0E87FD05C081
:1012B00080E090E0A8ECB2E410C069817A818B8173
:1012C0009C812AE939E949E95EE30E944A0E8823B4
:1012D00044F48AE999E9A9E9BEE389839A83AB8357
:1012E000BC8360910C0170910D01E0900C01F090B5
:1012F0000D01A0901C01B0901D0160901401709030
:10130000150180E090E00E94E70E1B012C0100E037
:1013100010E0C801B7010E94E70E7B018C01CC24CC
:10132000DD24C601B5010E94E70E20E03FEF4FE744
:101330005AE40E944E0E9B01AC01C801B7010E9405
:10134000C20F7B018C01A0E0BEEF6A0E7B1E8824D9
:1013500077FC8094982CC401B3010E94E90E9B0194
:10136000AC01C801B7010E94C20F9B01AC01C201D0
:10137000B1010E94E60D0E94BB0E709301016093C3
:10138000000160910E0170910F01E0900E01F0904C
:101390000F01A0901E01B0901F0160901601709087
:1013A000170180E090E00E94E70E1B012C0100E095
:1013B00010E0C801B7010E94E70E7B018C01CC242C
:1013C000DD24C601B5010E94E70E20E03FEF4FE7A4
:1013D0005AE40E944E0E9B01AC01C801B7010E9465
:1013E000C20F7B018C01E0E0FEEF6E0E7F1E8824B1
:1013F00077FC8094982CC401B3010E94E90E9B01F4
:10140000AC01C801B7010E94C20F9B01AC01C2012F
:10141000B1010E94E60D0E94BB0E70930301609320
:1014200002016091100170911101E0901001F090A3
:101430001101A0902001B0902101609018017090DE
:10144000190180E090E00E94E70E1B012C0100E0F2
:1014500010E0C801B7010E94E70E7B018C01CC248B
:10146000DD24C601B5010E94E70E20E03FEF4FE703
:101470005AE40E944E0E9B01AC01C801B7010E94C4
:10148000C20F7B018C0180E09EEF680E791E8824DC
:1014900077FC8094982CC401B3010E94E90E9B0153
:1014A000AC01C801B7010E94C20F9B01AC01C2018F
:1014B000B1010E94E60D0E94BB0E7093050160937E
:1014C00004016091120170911301E0901201F090FB
:1014D0001301A0902201B090230160901A01709036
:1014E0001B0180E090E00E94E70E1B012C0100E050
:1014F00010E0C801B7010E94E70E7B018C01CC24EB
:10150000DD24C601B5010E94E70E20E03FEF4FE762
:101510005AE40E944E0E9B01AC01C801B7010E9423
:10152000C20F7B018C01A0E0BEEF6A0E7B1E8824F7
:1015300077FC8094982CC401B3010E94E90E9B01B2
:10154000AC01C801B7010E94C20F9B01AC01C201EE
:10155000B1010E94E60D0E94BB0E709307016093DB
:1015600006019DCD0E940D0B0E94B607FDCF1F9274
:101570000F920FB60F9211242F933F938F939F9347
:10158000AF93BF9380915E0190915F01A091600144
:10159000B0916101309162010196A11DB11D232F0F
:1015A0002D5F2D3720F02D570196A11DB11D2093E1
:1015B000620180935E0190935F01A0936001B093FC
:1015C000610180915A0190915B01A0915C01B09101
:1015D0005D010196A11DB11D80935A0190935B019D
:1015E000A0935C01B0935D01BF91AF919F918F91EA
:1015F0003F912F910F900FBE0F901F90189501975C
:1016000059F0FC01EE0FFF1FEE0FFF1F32978FB74F
:10161000F8943197F1F78FBF0895789484B582607C
:1016200084BD84B5816084BD85B5826085BD85B586
:10163000816085BDEEE6F0E0808181608083E1E835
:10164000F0E0808182608083808181608083E0E837
:10165000F0E0808181608083E1EBF0E08081846054
:101660008083E0EBF0E0808181608083EAE7F0E056
:1016700080818460808380818260808380818160BA
:1016800080838081806880831092C10008958F706C
:1016900090912D019295990F990F907C982B909392
:1016A0007C0080917A00806480937A0080917A0037
:1016B00086FDFCCF2091780040917900942F80E046
:1016C00030E0282B392BC90108951F93CF93DF9366
:1016D000182FEB0161E00E94BE0BE12FF0E0E45314
:1016E000F54F8491833051F480918000806880931D
:1016F0008000D0938900C09388003CC0843051F4AE
:1017000080918000806280938000D0938B00C09392
:101710008A0030C0813039F4209729F184B580687F
:1017200084BDC7BD27C0823039F42097E1F084B56D
:10173000806284BDC8BD1EC0863041F48091B00077
:1017400080688093B000C093B30014C0873041F428
:101750008091B00080628093B000C093B4000AC052
:10176000C038D1051CF4812F60E002C0812F61E0F8
:101770000E94DE0BDF91CF911F910895282F30E05A
:10178000C9018854954FFC0194912C55354FF901AE
:101790008491882391F0E82FF0E0EE0FFF1FEA57C5
:1017A000F54FA591B491662329F48C9190958923E6
:1017B0008C9308958C91892B8C930895482F50E039
:1017C000CA018453954FFC012491CA018854954F56
:1017D000FC0194914C55554FFA0134913323D1F1CA
:1017E000222331F1233021F4809180008F7705C0CE
:1017F000243031F4809180008F7D8093800018C068
:10180000213019F484B58F7704C0223021F484B5D7
:101810008F7D84BD0DC0263021F48091B0008F777C
:1018200005C0273029F48091B0008F7D8093B000EF
:10183000E32FF0E0EE0FFF1FE057F54FA591B491B5
:10184000662329F48C91909589238C9308958C912B
:10185000892B8C9308951F920F920FB60F9211242B
:101860002F933F934F935F936F937F938F939F93A8
:10187000AF93BF93EF93FF934091C600E091E301D4
:10188000F091E401CF01019660E870E00E94AD1094
:101890009C018091E5019091E6012817390739F004
:1018A000ED59FE4F40833093E4012093E301FF9113
:1018B000EF91BF91AF919F918F917F916F915F91C8
:1018C0004F913F912F910F900FBE0F901F90189541
:1018D0005F926F927F928F929F92AF92BF92CF92C0
:1018E000DF92EF92FF920F931F93CF93DF93EC0160
:1018F0003A014B01413482E458078FE0680780E0E9
:1019000078070CF07FC060E874E88EE190E0A401F5
:1019100093010E94E2102150304040405040CA01E3
:10192000B90122E030E040E050E00E94E2105901AD
:101930006A01A6019501209530954095509594E057
:10194000220F331F441F551F9A95D1F760E074E2B0
:1019500084EF90E00E94E210CA01B9012FEF30E05D
:1019600040E050E00E948E10A40193010E94E2101A
:10197000C90181509F4F181619061CF4522E5A9413
:1019800003C055245394521A60E079E08DE390E04F
:10199000A40193010E94E210215030404040504089
:1019A000CA01B90122E030E040E050E00E94E210BC
:1019B000209530954095509583E0220F331F441FAA
:1019C000551F8A95D1F760E074E284EF90E00E94A1
:1019D000E210CA01B9012FEF30E040E050E00E9470
:1019E0008E10A40193010E94E210C90181509F4F03
:1019F000181619061CF4822F815002C081E0821B48
:101A0000851500F5E885F98581E090E00A8802C037
:101A1000880F991F0A94E2F7808360E079E08DE3F4
:101A200090E0A40193010E94E21021503040404018
:101A30005040CA01B90122E030E040E050E00E948D
:101A4000E21004C0E885F98510829501EC81FD81E2
:101A50003083EE81FF812083EA85FB85208141E090
:101A600050E0CA010E8402C0880F991F0A94E2F761
:101A7000282B2083EA85FB852081CA010F8402C0C0
:101A8000880F991F0A94E2F7282B2083EA85FB85AB
:101A90008081088802C0440F551F0A94E2F7842B06
:101AA0008083DF91CF911F910F91FF90EF90DF9096
:101AB000CF90BF90AF909F908F907F906F905F90EE
:101AC0000895FC01A085B18521898C9190E0022EBA
:101AD00002C0959587950A94E2F780FFF6CF0484BB
:101AE000F585E02D6083089582E391E09093E8010D
:101AF0008093E70183E691E09093EA018093E90106
:101B000085EC90E09093EC018093EB0184EC90E005
:101B10009093EE018093ED0180EC90E09093F001C2
:101B20008093EF0181EC90E09093F2018093F101BA
:101B300086EC90E09093F4018093F30184E080932D
:101B4000F50183E08093F60187E08093F70185E05B
:101B50008093F80181E08093F90108950F931F931A
:101B6000CF93DF938C01EB0109C02196D801ED9151
:101B7000FC910190F081E02DC801099568816623F0
:101B8000A1F7DF91CF911F910F910895EF92FF92EE
:101B90000F931F93CF93DF938C017B01EA010CC05D
:101BA000D7016D917D01D801ED91FC910190F081FB
:101BB000E02DC80109952197209791F7DF91CF91EA
:101BC0001F910F91FF90EF9008955058BB27AA27BF
:101BD0000ED09AC18BD130F090D120F031F49F3FDC
:101BE00011F41EF45BC10EF4E095E7FB51C1E92F3F
:101BF0009CD180F3BA17620773078407950718F022
:101C000071F49EF5B4C10EF4E0950B2EBA2FA02D01
:101C10000B01B90190010C01CA01A0011124FF2799
:101C2000591B99F0593F50F4503E68F11A16F04094
:101C3000A22F232F342F4427585FF3CF4695379593
:101C40002795A795F0405395C9F77EF41F16BA0B58
:101C5000620B730B840BBAF09150A1F0FF0FBB1F06
:101C6000661F771F881FC2F70EC0BA0F621F731F4F
:101C7000841F48F4879577956795B795F7959E3FAC
:101C800008F0B3CF9395880F08F09927EE0F97953A
:101C900087950895D9D008F481E008950CD034C117
:101CA0002CD140F023D130F021F45F3F19F0F0C087
:101CB00051115EC1F3C039D198F39923C9F355236B
:101CC000B1F3951B550BBB27AA276217730784072F
:101CD00038F09F5F5F4F220F331F441FAA1FA9F3E5
:101CE00033D00E2E3AF0E0E830D091505040E695D7
:101CF000001CCAF729D0FE2F27D0660F771F881F38
:101D0000BB1F261737074807AB07B0E809F0BB0B26
:101D1000802DBF01FF2793585F4F2AF09E3F51054A
:101D200068F0B6C025C15F3FECF3983EDCF38695C2
:101D300077956795B795F7959F5FC9F7880F911DC0
:101D40009695879597F90895E1E0660F771F881FAC
:101D5000BB1F621773078407BA0720F0621B730B5F
:101D6000840BBA0BEE1F88F7E095089504D06894B1
:101D7000B111FEC00895E1D088F09F5790F0B92FBF
:101D80009927B751A0F0D1F0660F771F881F991FD0
:101D90001AF0BA95C9F712C0B13081F0E8D0B1E0BD
:101DA0000895E5C0672F782F8827B85F39F0B93FCD
:101DB000CCF3869577956795B395D9F73EF49095D2
:101DC0008095709561957F4F8F4F9F4F0895E89450
:101DD00009C097FB3EF490958095709561957F4F73
:101DE0008F4F9F4F9923A9F0F92F96E9BB27939521
:101DF000F695879577956795B795F111F8CFFAF431
:101E0000BB0F11F460FF1BC06F5F7F4F8F4F9F4F61
:101E100016C0882311F096E911C0772321F09EE8BF
:101E2000872F762F05C0662371F096E8862F70E025
:101E300060E02AF09A95660F771F881FDAF7880FFF
:101E40009695879597F90895990F0008550FAA0B55
:101E5000E0E8FEEF16161706E807F907C0F01216BD
:101E60001306E407F50798F0621B730B840B950BC0
:101E700039F40A2661F0232B242B252B21F4089515
:101E80000A2609F4A140A6958FEF811D811D0895B2
:101E900097F99F6780E870E060E008959FEF80EC1D
:101EA0000895DF93CF931F930F93FF92EF92DF92EA
:101EB0007B018C01689405C0DA2EEF016FD0FE0122
:101EC000E894A5912591359145915591AEF3EF0197
:101ED0008EDEFE019701A801DA9479F7DF90EF908A
:101EE000FF900F911F91CF91DF91089500240A94E4
:101EF0001616170618060906089500240A941216E5
:101F00001306140605060895092E0394000C11F417
:101F1000882352F0BB0F40F4BF2B11F460FF04C0C4
:101F20006F5F7F4F8F4F9F4F089557FD9058440F1D
:101F3000551F59F05F3F71F04795880F97FB991F28
:101F400061F09F3F79F087950895121613061406E5
:101F5000551FF2CF4695F1DF08C016161706180672
:101F6000991FF1CF86957105610508940895E8944D
:101F7000BB2766277727CB0197F9089565DF08F41B
:101F80008FEF08950BD0C0CFB1DF28F0B6DF18F087
:101F9000952309F07DCF82CF1124EACFC6DFA0F3CD
:101FA000959FD1F3950F50E0551F629FF001729FEE
:101FB000BB27F00DB11D639FAA27F00DB11DAA1F0D
:101FC000649F6627B00DA11D661F829F2227B00D5A
:101FD000A11D621F739FB00DA11D621F839FA00DE5
:101FE000611D221F749F3327A00D611D231F849F35
:101FF000600D211D822F762F6A2F11249F5750408C
:102000008AF0E1F088234AF0EE0FFF1FBB1F661F26
:10201000771F881F91505040A9F79E3F510570F0DF
:1020200037CFA6CF5F3FECF3983EDCF386957795EC
:102030006795B795F795E7959F5FC1F7FE2B880FDA
:10204000911D9695879597F908959F9315D00F90B8
:1020500007FCEE5F41C09F3F49F0915028F4869500
:1020600077956795B7959F5F80389F4F880F9695B6
:10207000879597F9089512CF60DFE8F3E894EFEFC2
:10208000BB273FE048EC5FE76B3D7307840795078C
:1020900008F1FF279F57B25A6A4D7F40894CF040A4
:1020A00032F4BE556542704F8643FF4F0894EE1FD1
:1020B000915030F0BB0F661F771F881FFF1FEBCFBB
:1020C0009EE7882332F0BB0F661F771F881F9A9503
:1020D000C1F79395E095BFCFEF93E0FF06C0A2EA6A
:1020E0002AED3FE049EC5FEB82DD0EDF0F900394B9
:1020F00001FC9058E8E6F0E000C09F938F937F9337
:102100006F93FF93EF939B01AC013CDFEF91FF9145
:10211000C8DE2F913F914F915F9134CF629FD001E4
:10212000739FF001829FE00DF11D649FE00DF11D92
:10213000929FF00D839FF00D749FF00D659FF00D41
:102140009927729FB00DE11DF91F639FB00DE11D2E
:10215000F91FBD01CF011124089597FB092E072611
:102160000AD077FD04D049D006D000201AF470952B
:1021700061957F4F0895F6F7909581959F4F08954B
:10218000A1E21A2EAA1BBB1BFD010DC0AA1FBB1F7B
:10219000EE1FFF1FA217B307E407F50720F0A21BED
:1021A000B30BE40BF50B661F771F881F991F1A945A
:1021B00069F760957095809590959B01AC01BD0184
:1021C000CF01089597FB092E05260ED057FD04D0A8
:1021D000D7DF0AD0001C38F45095409530952195F2
:1021E0003F4F4F4F5F4F0895F6F79095809570954C
:1021F00061957F4F8F4F9F4F0895AA1BBB1B51E1E5
:1022000007C0AA1FBB1FA617B70710F0A61BB70B66
:10221000881F991F5A95A9F780959095BC01CD010B
:102220000895EE0FFF1F0590F491E02D0994F894A6
:02223000FFCFDE
:10223200E803C8002C019001FFFFFFFFF401F40145
:10224200F401F4011400000040007F0000800080CF
:10225200008000800A000A000A000A00040100004F
:082262000000610DAE0DC60D78
:00000001FF
