:100000000C9462050C948A050C948A050C948A055C
:100010000C948A050C948A050C948A050C948A0524
:100020000C948A050C948A050C948A050C948C0512
:100030000C948A050C948A050C948A050C948A0504
:100040000C9454090C948A050C942E0A0C948A057D
:100050000C948A050C948A050C948A050C948A05E4
:100060000C948A050C948A05000306090C0F1215DE
:10007000181B1E2124272A2D303336393B3E41439D
:1000800046494B4E50525557595B5E6062646667F5
:10009000696B6C6E7071727475767778797A7B7B28
:1000A0007C7D7D7E7E7E7E7E7F7E7E7E7E7E7D7D75
:1000B0007C7B7B7A7978777675747271706E6C6BF5
:1000C0006967666462605E5B59575552504E4B4992
:1000D0004643413E3B393633302D2A2724211E1B0F
:1000E0001815120F0C09060300FDFAF7F4F1EEEBF8
:1000F000E8E5E2DFDCD9D6D3D0CDCAC7C5C2BFBDE3
:10010000BAB7B5B2B0AEABA9A7A5A2A09E9C9A996A
:1001100097959492908F8E8C8B8A89888786858517
:1001200084838382828282828182828282828383AA
:10013000848585868788898A8B8C8E8F909294950A
:1001400097999A9C9EA0A2A5A7A9ABAEB0B2B5B74D
:10015000BABDBFC2C5C7CACDD0D3D6D9DCDFE2E5B0
:10016000E8EBEEF1F4F7FAFC8182838485868788D8
:10017000898A8B8C8D8E8F90919293949596979877
:10018000999A9B9C9D9E9FA0A1A2A3A4A5A6A7A867
:10019000A9AAABACADAEAFB0B1B2B3B4B5B6B7B857
:1001A000B9BABBBCBDBEBFC0C1C2C3C4C5C6C7C847
:1001B000C9CACBCCCDCECFD0D1D2D3D4D5D6D7D837
:1001C000D9DADBDCDDDEDFE0E1E2E3E4E5E6E7E827
:1001D000E9EAEBECEDEEEFF0F1F2F3F4F5F6F7F817
:1001E000F9FAFBFCFDFEFF0000010203040506070F
:1001F00008090A0B0C0D0E0F101112131415161707
:1002000018191A1B1C1D1E1F2021222324252627F6
:1002100028292A2B2C2D2E2F3031323334353637E6
:1002200038393A3B3C3D3E3F4041424344454647D6
:1002300048494A4B4C4D4E4F5051525354555657C6
:1002400058595A5B5C5D5E5F6061626364656667B6
:1002500068696A6B6C6D6E6F7071727374757677A6
:1002600078797A7B7C7D7E7F807F7E7D7C7B7A79CE
:100270007877767574737271706F6E6D6C6B6A6976
:100280006867666564636261605F5E5D5C5B5A5966
:100290005857565554535251504F4E4D4C4B4A4956
:1002A0004847464544434241403F3E3D3C3B3A3946
:1002B0003837363534333231302F2E2D2C2B2A2936
:1002C0002827262524232221201F1E1D1C1B1A1926
:1002D0001817161514131211100F0E0D0C0B0A0916
:1002E00008070605040302010000FFFEFDFCFBFAFF
:1002F000F9F8F7F6F5F4F3F2F1F0EFEEEDECEBEAE6
:10030000E9E8E7E6E5E4E3E2E1E0DFDEDDDCDBDAD5
:10031000D9D8D7D6D5D4D3D2D1D0CFCECDCCCBCAC5
:10032000C9C8C7C6C5C4C3C2C1C0BFBEBDBCBBBAB5
:10033000B9B8B7B6B5B4B3B2B1B0AFAEADACABAAA5
:10034000A9A8A7A6A5A4A3A2A1A09F9E9D9C9B9A95
:10035000999897969594939291908F8E8D8C8B8A85
:1003600089888786858483817F7F7F7F7F7F7F7F6A
:100370007F7F7F7F7F7F7F7F7F7F7F7F7F7F7F7F8D
:100380007F7F7F7F7F7F7F7F7F7F7F7F7F7F7F7F7D
:100390007F7F7F7F7F7F7F7F7F7F7F7F7F7F7F7F6D
:1003A0007F7F7F7F7F7F7F7F7F7F7F7F7F7F7F7F5D
:1003B0007F7F7F7F7F7F7F7F7F7F7F7F7F7F7F7F4D
:1003C0007F7F7F7F7F7F7F7F7F7F7F7F7F7F7F7F3D
:1003D0007F7F7F7F7F7F7F7F7F7F7F7F7F7F7F7F2D
:1003E0007F7F7F7F7F7F7F7F8383838383838383FD
:1003F00083838383838383838383838383838383CD
:1004000083838383838383838383838383838383BC
:1004100083838383838383838383838383838383AC
:10042000838383838383838383838383838383839C
:10043000838383838383838383838383838383838C
:10044000838383838383838383838383838383837C
:10045000838383838383838383838383838383836C
:1004600083838383838383FFC2B8A49E629960A73A
:10047000E3C962F88A0D0BFF4CF88C3321ABD5F041
:100480008ED1C18F6DD981C50076463E3655337AFF
:100490003C1E82E747AEF540A1927F25F2C733FCB0
:1004A000D1B06E078B5941C632EB218FEA6FD26C07
:1004B00070C79135EBEA81EEF75F5863EFFD4A02B2
:1004C0007BE135F95BB00F90720E8DC9165F153563
:1004D00097BDE7190D3A87C267576D26B1C4F0BCC6
:1004E000A55A709D7657C3DCD8D9E222539CD58E8D
:1004F000CAF8DCCC4716DF74097218A5D096FEE165
:100500006715752C73C535617C4278D439A0E82E07
:10051000206FC8852EF561BAF4A7AF18E3E94D2A1C
:10052000D8089EDDEB743DD77442A8165FE128CD54
:10053000B21C037C5C51E54E41F08CB78237B44E5F
:10054000112B42E875DAB4F6DBD1C8215ED86B24F2
:1005500098F5E5E969A044E7074306BB46F60A05B6
:100560002A78B986AA7170770001030507090B0D77
:100570000F11131517191B1D1F21232527292B2D9B
:100580002F31333537393B3D3F41434547494B4D8B
:100590004F51535557595B5D5F61636567696B6D7B
:1005A0006F71737577797B7D7F7D7B7977757371DB
:1005B0006F6D6B69676563615F5D5B59575553513B
:1005C0004F4D4B49474543413F3D3B39373533312B
:1005D0002F2D2B29272523211F1D1B19171513111B
:1005E0000F0D0B090705030100FFFDFBF9F7F5F3FC
:1005F000F1EFEDEBE9E7E5E3E1DFDDDBD9D7D5D3DB
:10060000D1CFCDCBC9C7C5C3C1BFBDBBB9B7B5B3CA
:10061000B1AFADABA9A7A5A3A19F9D9B99979593BA
:10062000918F8D8B8987858381838587898B8D8F3A
:1006300091939597999B9D9FA1A3A5A7A9ABADAFBA
:10064000B1B3B5B7B9BBBDBFC1C3C5C7C9CBCDCFAA
:10065000D1D3D5D7D9DBDDDFE1E3E5E7E9EBEDEF9A
:10066000F1F3F5F7F9FBFDFEFFFEFEFEFEFEFEFDDB
:10067000FDFDFDFDFDFCFCFCFCFCFBFBFBFAFAFABE
:10068000F9F9F8F8F8F7F7F7F6F6F5F3F1EFEDEA20
:10069000E8E6E4E2DFDDDBD9D7D4D2D0CDCBC8C5E4
:1006A000C3C0BDBBB8B5B3B0ADABA8A6A3A09D9A5F
:1006B0009794918E8B8885827F7C797673716E6C2E
:1006C00069676562605E5B595654524F4D4B4846B0
:1006D0004543413F3E3C3A38363533312F2E2C2AA4
:1006E00029272625242221201F1D1C1B1A18171616
:1006F00014141313121111100F0F0E0E0D0C0C0BFE
:100700000A0A090909090908080808070707070666
:100710000606060606060605050505050505050582
:100720000505050505050505050404040404040480
:100730000404040404030303030303020202020289
:10074000020201010101010101010100000000009C
:100750000000000000000000000000000000000099
:100760000000000000000000FFF8F2EBE5DFD8D247
:10077000CCC5BFB9B2ACA59F99928E8A86817D798E
:1007800075706C68645F5B57534F4A4947464443F2
:1007900041403E3D3B3A383735343231302F2E2DF3
:1007A0002C2B2A292827262524232221201F1F1EFF
:1007B0001E1E1D1D1C1C1C1B1B1A1A1A1919191888
:1007C00018181817171717171616161615151515C2
:1007D00014141414131313131312121212111111EF
:1007E00011101010100F0F0F0F0F0E0E0E0E0D0D1B
:1007F0000D0D0C0C0C0C0B0B0B0B0A0A0A0A0A0948
:10080000090909080808080808070707070706066E
:100810000606060606060605050505050505050581
:10082000050505050505050505040404040404047F
:100830000404040404030303030303020202020288
:10084000020201010101010101010100000000009B
:100850000000000000000000000000000000000098
:100860000000000000000000FFFEFEFEFEFEFEFD98
:10087000FDFDFDFDFDFCFCFCFCFCFCFCFBFBFBFBB7
:10088000FBFBFAFAFAFAFAFAF9F9F9F8F7F6F4F3DF
:10089000F2F1F0EFEDECEBEAE9E7E6E5DBD2C8BE1A
:1008A000B4AAA0978D83796F665C52483E3C3A3873
:1008B0003533312F2D2A282624221F1D1B191918E4
:1008C00018181817171717171616161615151515C1
:1008D00014141414131313131312121212111111EE
:1008E00011101010100F0F0F0F0F0E0E0E0E0D0D1A
:1008F0000D0D0C0C0C0C0B0B0B0B0A0A0A0A0A0947
:10090000090909080808080808070707070706066D
:100910000606060606060605050505050505050580
:10092000050505050505050505040404040404047E
:100930000404040404030303030303020202020287
:10094000020201010101010101010100000000009A
:100950000000000000000000000000000000000097
:100960000000000000000000FFFCFAF8F6F4F2F0CE
:10097000EEEBE9E7E5E3E1DFDDDAD9D7D5D3D1D096
:10098000CECCCAC8C7C5C3C1BFBEBCBAB7B5B3B168
:10099000AFACAAA8A6A4A19F9D9B99969492908D76
:1009A0008B89868482807D7B79767472706E6D6BA4
:1009B000696866656362605E5D5B5A58575553525D
:1009C000504F4D4C4A4847454442413F3D3C3A39DF
:1009D00038373634333231302E2D2C2B2A29272626
:1009E000252322201F1D1C1A191716141311100E6F
:1009F0000D0D0C0C0C0C0B0B0B0B0A0A0A0A0A0946
:100A0000090909080808080808070707070706066C
:100A1000060606060606060505050505050505057F
:100A2000050505050505050505040404040404047D
:100A30000404040404030303030303020202020286
:100A40000202010101010101010101000000000099
:100A50000000000000000000000000000000000096
:100A6000000000000000000000000000240027003B
:100A70002A0000000000250028002B0000000000D4
:100A800023002600290004040404040404040202D0
:100A900002020202030303030303010204081020FD
:100AA0004080010204081020010204081020000008
:100AB000000700020100000304060000000000001F
:100AC0000000770B11241FBECFEFD4E0DEBFCDBFF7
:100AD00011E0A0E0B1E0E6E8FEE102C005900D9271
:100AE000A633B107D9F712E0A6E3B1E001C01D9229
:100AF000A730B107E1F71AE0C4ECDAE004C02297AE
:100B0000FE010E943D0FC23CD107C9F70E944D096A
:100B10000C94410F0C9400001F920F920FB60F928D
:100B200011242F933F934F935F938F939F93EF9352
:100B3000FF93E8E8F0E08081918186509F4F918398
:100B4000808340913E0150913F01209136013091C8
:100B500037018091000190910101820F931F9093C2
:100B6000370180933601E0913601F0913701EF2F84
:100B7000FF27E40FF51FE491809108012E2F332702
:100B800027FD309590E0AC01249FC001259F900D7A
:100B9000349F900D1124892F990F990B8595859578
:100BA000815887BD80914E0190914F01019690939D
:100BB0004F0180934E01FF91EF919F918F915F9133
:100BC0004F913F912F910F900FBE0F901F9018954E
:100BD0006F927F928F929F92AF92BF92CF92DF924D
:100BE000EF92FF920F931F9339014A01A7019601DB
:100BF000E82EFF24EE0CFF1CF701E25CFE4F718330
:100C00006083F701EA5BFE4F1183008360E070E0D0
:100C100080E89FE30E94330D28EC30E048E45DE378
:100C20000E94330D0E949B0DF701EC5DFE4F718316
:100C30006083C401B3012AEF30E04AE75EE30E941B
:100C4000330D0E949B0DF701E45FFE4F71836083BB
:100C500024E131E0E20EF31EF701B182A0821F9180
:100C60000F91FF90EF90DF90CF90BF90AF909F904B
:100C70008F907F906F900895DF92EF92FF920F9385
:100C80001F9310925A0110925B0110925C01109216
:100C90005D010E949C096C507E4F8F4F9F4F609367
:100CA0006201709363018093640190936501DD2478
:100CB000D39450C080915E0190915F01A09160013A
:100CC000B09161010196A11DB11D80935E019093C9
:100CD0005F01A0936001B0936101E0915601F09132
:100CE0005701208180915001482F50E0809166018A
:100CF00090E030E0242335238217930759F5809143
:100D00005A0190915B01A0915C01B0915D01019647
:100D1000A11DB11D80935A0190935B01A0935C01CA
:100D2000B0935D01808190E084239523E09154018C
:100D3000F091550120915201892B31F48081822B51
:100D40008083D092660106C080812095282320836D
:100D500010926601E0906201F090630100916401DD
:100D6000109165010E949C096E157F05800791070F
:100D700008F4A0CF80915A0190915B011F910F91CF
:100D8000FF90EF90DF90089588E060E00E940E0AE7
:100D90008AE061E00E940E0A42EA5AE0FA01849178
:100DA000809350016EE87AE0FB0124912093510179
:100DB0004E5F5F4FFA018491809352016E5F7F4FC7
:100DC000FB01449140935301E42FF0E0EE0FFF1F2D
:100DD00042E75AE0E40FF51F8591949190935501F5
:100DE0008093540130E0220F331FFA01E20FF31F0A
:100DF000859194919093590180935801F901E45899
:100E0000F54F8591949190935701809356010895E1
:100E10002F923F924F925F926F927F928F929F920A
:100E2000AF92BF92CF92DF92EF92FF920F931F93F8
:100E3000DF93CF93CDB7DEB728970FB6F894DEBF18
:100E40000FBECDBF82E08093810080916F008260F1
:100E500080936F007894569A83E884BD81E085BDC5
:100E60008FE787BD80E068E670E020E030E048E48E
:100E700053E408E617E00F2EF0E0CF2EF0E0DF2E6F
:100E8000F0E8EF2EFFE3FF2EF02DACE2AA2EA1E05A
:100E9000BA2E0E94E80581E068E671E020E030E0CB
:100EA00048EC52E4A12CF2E0BF2E0E94E80582E05B
:100EB00068E675E020E030E048EC52E408E618E02F
:100EC0000F2EF0E0CF2EF0E0DF2EF0E0EF2EFFE36C
:100ED000FF2EF02DE8EEAE2EE3E0BE2E0E94E805D8
:100EE00083E068E674E020E030E046E954E408E698
:100EF00019E00F2EFAE0CF2EF7EDDF2EF3EAEF2EFA
:100F0000FCE3FF2EF02D94EFA92E91E0B92E0E9464
:100F1000E80584EF91E040E855E260E070E00E946F
:100F20006B0A80E090E0A0E0B0E08D839E83AF8309
:100F3000B88789839A83AB83BC830E943C06AA2727
:100F400097FDA095BA2FBC01CD010E94C90D5B0190
:100F50006C016D817E818F81988524EA30E74DE7B1
:100F60005FE30E94550E7B018C01C601B5012AE0AA
:100F700037ED43E25CE30E94550EA80197010E9401
:100F8000CF0C6D837E838F83988769817A818B8173
:100F90009C812FE135E84BE65FE30E94550E7B0113
:100FA0008C01C601B5012AE037ED43EA5DE30E94FA
:100FB000550EA80197010E94CF0C69837A838B8319
:100FC0009C832D813E814F8158850E94CE0C20E06C
:100FD00030E048EC52EC0E94550E0E949B0D70933D
:100FE0000D0160930C0164E670E080E090E00E94E7
:100FF000AA0960910C0170910D0184EF91E00E94AB
:10100000BE0C80914E0190914F01895E934020F07B
:1010100010924F0110924E0160910C0170910D01E0
:10102000E0900C01F0900D01A0901C01B0901D010A
:10103000609014017090150180E090E00E94C70D4F
:101040001B012C0100E010E0C801B7010E94C70D90
:101050007B018C01CC24DD24C601B5010E94C70DA3
:1010600020E03FEF4FE75AE40E94330D9B01AC01B3
:10107000C801B7010E94550E7B018C01E0E0FEEF34
:101080006E0E7F1E882477FC8094982CC401B301D7
:101090000E94C90D9B01AC01C801B7010E94550E09
:1010A0009B01AC01C201B1010E94CF0C0E949B0DBB
:1010B000709301016093000160910E0170910F0126
:1010C000E0900E01F0900F01A0901E01B0901F0162
:1010D000609016017090170180E090E00E94C70DAB
:1010E0001B012C0100E010E0C801B7010E94C70DF0
:1010F0007B018C01CC24DD24C601B5010E94C70D03
:1011000020E03FEF4FE75AE40E94330D9B01AC0112
:10111000C801B7010E94550E7B018C0180E09EEF53
:10112000680E791E882477FC8094982CC401B30142
:101130000E94C90D9B01AC01C801B7010E94550E68
:101140009B01AC01C201B1010E94CF0C0E949B0D1A
:10115000709303016093020160911001709111017D
:10116000E0901001F0901101A0902001B0902101B9
:10117000609018017090190180E090E00E94C70D06
:101180001B012C0100E010E0C801B7010E94C70D4F
:101190007B018C01CC24DD24C601B5010E94C70D62
:1011A00020E03FEF4FE75AE40E94330D9B01AC0172
:1011B000C801B7010E94550E7B018C01A0E0BEEF73
:1011C0006A0E7B1E882477FC8094982CC401B3019E
:1011D0000E94C90D9B01AC01C801B7010E94550EC8
:1011E0009B01AC01C201B1010E94CF0C0E949B0D7A
:1011F00070930501609304016091120170911301D5
:10120000E0901201F0901301A0902201B090230110
:1012100060901A0170901B0180E090E00E94C70D61
:101220001B012C0100E010E0C801B7010E94C70DAE
:101230007B018C01CC24DD24C601B5010E94C70DC1
:1012400020E03FEF4FE75AE40E94330D9B01AC01D1
:10125000C801B7010E94550E7B018C01E0E0FEEF52
:101260006E0E7F1E882477FC8094982CC401B301F5
:101270000E94C90D9B01AC01C801B7010E94550E27
:101280009B01AC01C201B1010E94CF0C0E949B0DD9
:10129000709307016093060150CE0E94D4090E940A
:1012A000C4060E940807FDCF1F920F920FB60F923F
:1012B00011242F933F938F939F93AF93BF9380916C
:1012C0006B0190916C01A0916D01B0916E01309114
:1012D0006F010196A11DB11D232F2D5F2D3720F029
:1012E0002D570196A11DB11D20936F0180936B01B5
:1012F00090936C01A0936D01B0936E018091670192
:1013000090916801A0916901B0916A010196A11DB7
:10131000B11D8093670190936801A0936901B09318
:101320006A01BF91AF919F918F913F912F910F9043
:101330000FBE0F901F9018958FB7F89420916B01F6
:1013400030916C0140916D0150916E018FBFB901D8
:10135000CA010895EF92FF920F931F937B018C01B6
:101360008FB7F89440916B0150916C0160916D01C1
:1013700070916E018FBF2FB7F89480916B0190919F
:101380006C01A0916D01B0916E012FBF841B950B74
:10139000A60BB70BE816F9060A071B0760F71F91A3
:1013A0000F91FF90EF900895789484B5826084BD8A
:1013B00084B5816084BD85B5826085BD85B5816059
:1013C00085BDEEE6F0E0808181608083E1E8F0E0B9
:1013D000808182608083808181608083E0E8F0E0AA
:1013E000808181608083E1EBF0E080818460808394
:1013F000E0EBF0E0808181608083EAE7F0E08081CB
:10140000846080838081826080838081816080832A
:101410008081806880831092C1000895282F30E079
:10142000C9018656954FFC0194912A57354FF90111
:101430008491882391F0E82FF0E0EE0FFF1FE85928
:10144000F54FA591B491662329F48C919095892349
:101450008C9308958C91892B8C9308951F920F92F1
:101460000FB60F9211242F933F934F935F936F9377
:101470007F938F939F93AF93BF93EF93FF9340918D
:10148000C600E091F001F091F101CF01019660E812
:1014900070E00E94D70E9C018091F2019091F301BF
:1014A0002817390739F0E059FE4F40833093F10196
:1014B0002093F001FF91EF91BF91AF919F918F9198
:1014C0007F916F915F914F913F912F910F900FBE40
:1014D0000F901F9018955F926F927F928F929F92BC
:1014E000AF92BF92CF92DF92EF92FF920F931F9332
:1014F000CF93DF93EC013A014B01413482E458076A
:101500008FE0680780E078070CF07FC060E874E83F
:101510008EE190E0A40193010E940C0F2150304015
:1015200040405040CA01B90122E030E040E050E0C4
:101530000E940C0F59016A01A60195012095309572
:101540004095509594E0220F331F441F551F9A95E4
:10155000D1F760E074E284EF90E00E940C0FCA01C2
:10156000B9012FEF30E040E050E00E94B80EA40136
:1015700093010E940C0FC90181509F4F1816190644
:101580001CF4522E5A9403C055245394521A60E00E
:1015900079E08DE390E0A40193010E940C0F2150AB
:1015A000304040405040CA01B90122E030E040E004
:1015B00050E00E940C0F209530954095509583E0A7
:1015C000220F331F441F551F8A95D1F760E074E244
:1015D00084EF90E00E940C0FCA01B9012FEF30E0B8
:1015E00040E050E00E94B80EA40193010E940C0F4D
:1015F000C90181509F4F181619061CF4822F815083
:1016000002C081E0821B851500F5E885F98581E03F
:1016100090E00A8802C0880F991F0A94E2F780833D
:1016200060E079E08DE390E0A40193010E940C0F4B
:101630002150304040405040CA01B90122E030E022
:1016400040E050E00E940C0F04C0E885F98510824C
:101650009501EC81FD813083EE81FF812083EA8555
:10166000FB85208141E050E0CA010E8402C0880F52
:10167000991F0A94E2F7282B2083EA85FB852081B5
:10168000CA010F8402C0880F991F0A94E2F7282B21
:101690002083EA85FB858081088802C0440F551F9E
:1016A0000A94E2F7842B8083DF91CF911F910F91F1
:1016B000FF90EF90DF90CF90BF90AF909F908F9072
:1016C0007F906F905F900895FC01A085B18521897E
:1016D0008C9190E0022E02C0959587950A94E2F7CE
:1016E00080FFF6CF0484F585E02D6083089580E3C4
:1016F00091E09093F5018093F40180E791E090935D
:10170000F7018093F60185EC90E09093F9018093C6
:10171000F80184EC90E09093FB018093FA0180EC57
:1017200090E09093FD018093FC0181EC90E0909318
:10173000FF018093FE0186EC90E09093010280937C
:10174000000284E08093020283E08093030287E03A
:101750008093040285E08093050281E08093060275
:1017600008950F931F93CF93DF938C01EB0109C072
:101770002196D801ED91FC910190F081E02DC801F6
:10178000099568816623A1F7DF91CF911F910F9191
:101790000895EF92FF920F931F93CF93DF938C01E5
:1017A0007B01EA010CC0D7016D917D01D801ED915B
:1017B000FC910190F081E02DC801099521972097B7
:1017C00091F7DF91CF911F910F91FF90EF900895C6
:1017D0000F931F938C01DC01ED91FC910190F0813E
:1017E000E02D6DE00995D801ED91FC910190F0811B
:1017F000E02DC8016AE009951F910F9108952F927D
:101800003F924F925F926F927F928F929F92AF9290
:10181000BF92CF92DF92EF92FF920F931F93DF93CD
:10182000CF93CDB7DEB7A0970FB6F894DEBF0FBE4B
:10183000CDBF1C016A017B01411551056105710590
:1018400049F4DC01ED91FC910190F081E02D60E321
:10185000099554C0882499245401422E55246624A5
:10186000772401E010E00C0F1D1F080D191DC701A2
:10187000B601A30192010E94EA0EF8016083089468
:10188000811C911CA11CB11CC701B601A3019201CE
:101890000E94EA0EC901DA016C017D01C114D10474
:1018A000E104F104F1F681E0E82EF12CEC0EFD1ECE
:1018B000E80CF91C3E010894611C711CD501C4019F
:1018C0000197A109B1096C01C818D90814C0F60123
:1018D000EE0DFF1D60816A3010F4605D01C0695C2F
:1018E000D101ED91FC910190F081E02DC1010995AC
:1018F0000894E108F1086E147F0449F7A0960FB62A
:10190000F894DEBF0FBECDBFCF91DF911F910F9135
:10191000FF90EF90DF90CF90BF90AF909F908F900F
:101920007F906F905F904F903F902F900895EF922F
:10193000FF920F931F93CF93DF93EC017A018B01FA
:1019400077FF0FC0E881F9810190F081E02D6DE211
:10195000099510950095F094E094E11CF11C011D8F
:10196000111DCE01B801A7012AE00E94FF0BDF91F3
:10197000CF911F910F91FF90EF9008950F931F93B8
:101980008C01AB01662757FD6095762F0E94970C5E
:10199000C8010E94E80B1F910F9108955058BB2772
:1019A000AA270ED048C139D130F03ED120F031F411
:1019B0009F3F11F41EF42EC10EF4E095E7FB24C105
:1019C000E92F4AD180F3BA17620773078407950796
:1019D00018F071F49EF562C10EF4E0950B2EBA2F4B
:1019E000A02D0B01B90190010C01CA01A001112425
:1019F000FF27591B99F0593F50F4503E68F11A16D1
:101A0000F040A22F232F342F4427585FF3CF469561
:101A100037952795A795F0405395C9F77EF41F1683
:101A2000BA0B620B730B840BBAF09150A1F0FF0F4D
:101A3000BB1F661F771F881FC2F70EC0BA0F621F39
:101A4000731F841F48F4879577956795B795F79529
:101A50009E3F08F0B3CF9395880F08F09927EE0FBB
:101A60009795879508950CD0E6C0DED040F0D5D08C
:101A700030F021F45F3F19F0C7C0511110C1CAC046
:101A8000EBD098F39923C9F35523B1F3951B550B6C
:101A9000BB27AA2762177307840738F09F5F5F4F41
:101AA000220F331F441FAA1FA9F333D00E2E3AF082
:101AB000E0E830D091505040E695001CCAF729D09C
:101AC000FE2F27D0660F771F881FBB1F26173707EB
:101AD0004807AB07B0E809F0BB0B802DBF01FF271B
:101AE00093585F4F2AF09E3F510568F08DC0D7C0D4
:101AF0005F3FECF3983EDCF3869577956795B79555
:101B0000F7959F5FC9F7880F911D9695879597F96F
:101B10000895E1E0660F771F881FBB1F62177307E8
:101B20008407BA0720F0621B730B840BBA0BEE1FFD
:101B300088F7E095089598D088F09F5790F0B92FD6
:101B40009927B751A0F0D1F0660F771F881F991F12
:101B50001AF0BA95C9F712C0B13081F09FD0B1E048
:101B600008959CC0672F782F8827B85F39F0B93F58
:101B7000CCF3869577956795B395D9F73EF4909514
:101B80008095709561957F4F8F4F9F4F0895E89492
:101B900009C097FB3EF490958095709561957F4FB5
:101BA0008F4F9F4F9923A9F0F92F96E9BB27939563
:101BB000F695879577956795B795F111F8CFFAF473
:101BC000BB0F11F460FF1BC06F5F7F4F8F4F9F4FA4
:101BD00016C0882311F096E911C0772321F09EE802
:101BE000872F762F05C0662371F096E8862F70E068
:101BF00060E02AF09A95660F771F881FDAF7880F42
:101C00009695879597F9089597F99F6780E870E012
:101C100060E008959FEF80EC089500240A94161662
:101C2000170618060906089500240A9412161306CA
:101C3000140605060895092E0394000C11F4882358
:101C400052F0BB0F40F4BF2B11F460FF04C06F5F74
:101C50007F4F8F4F9F4F089557FD9058440F551F4A
:101C600059F05F3F71F04795880F97FB991F61F01E
:101C70009F3F79F087950895121613061406551F95
:101C8000F2CF4695F1DF08C0161617061806991F01
:101C9000F1CF86957105610508940895E894BB27F6
:101CA00066277727CB0197F908950BD0C4CFB5DF0E
:101CB00028F0BADF18F0952309F0A6CFABCF112496
:101CC000EECFCADFA0F3959FD1F3950F50E0551FDB
:101CD000629FF001729FBB27F00DB11D639FAA2781
:101CE000F00DB11DAA1F649F6627B00DA11D661FD0
:101CF000829F2227B00DA11D621F739FB00DA11DF1
:101D0000621F839FA00D611D221F749F3327A00DAA
:101D1000611D231F849F600D211D822F762F6A2F46
:101D200011249F5750408AF0E1F088234AF0EE0FCB
:101D3000FF1FBB1F661F771F881F91505040A9F7D8
:101D40009E3F510570F060CFAACF5F3FECF3983E05
:101D5000DCF3869577956795B795F795E7959F5F3F
:101D6000C1F7FE2B880F911D9695879597F90895D9
:101D7000629FD001739FF001829FE00DF11D649F6F
:101D8000E00DF11D929FF00D839FF00D749FF00DFB
:101D9000659FF00D9927729FB00DE11DF91F639F9C
:101DA000B00DE11DF91FBD01CF011124089597FB6E
:101DB000092E07260AD077FD04D049D006D000208E
:101DC0001AF4709561957F4F0895F6F79095819577
:101DD0009F4F0895A1E21A2EAA1BBB1BFD010DC047
:101DE000AA1FBB1FEE1FFF1FA217B307E407F507CB
:101DF00020F0A21BB30BE40BF50B661F771F881FA7
:101E0000991F1A9469F760957095809590959B013C
:101E1000AC01BD01CF01089597FB092E05260ED018
:101E200057FD04D0D7DF0AD0001C38F450954095F8
:101E3000309521953F4F4F4F5F4F0895F6F790959E
:101E40008095709561957F4F8F4F9F4F0895AA1B86
:101E5000BB1B51E107C0AA1FBB1FA617B70710F095
:101E6000A61BB70B881F991F5A95A9F780959095C7
:101E7000BC01CD010895EE0FFF1F0590F491E02DF8
:061E80000994F894FFCF65
:101E8600E803C8002C019001FFFFFFFFF401F401F5
:101E9600F401F4011400000040007F00008000807F
:101EA600008000800A000A000A000A000000000004
:061EB600640BB10BC90B27
:00000001FF
